{
	"StorageFactory.sol": {
		"StorageFactory": {
			"abi": [
				{
					"inputs": [],
					"name": "createSimpleStorage",
					"outputs": [],
					"stateMutability": "nonpayable",
					"type": "function"
				},
				{
					"inputs": [
						{
							"internalType": "uint256",
							"name": "_simpleStorageIndex",
							"type": "uint256"
						}
					],
					"name": "sfGetNumber",
					"outputs": [
						{
							"internalType": "uint256",
							"name": "",
							"type": "uint256"
						}
					],
					"stateMutability": "view",
					"type": "function"
				},
				{
					"inputs": [
						{
							"internalType": "uint256",
							"name": "_simpleStorageIndex",
							"type": "uint256"
						},
						{
							"internalType": "uint256",
							"name": "_number",
							"type": "uint256"
						}
					],
					"name": "sfStore",
					"outputs": [],
					"stateMutability": "nonpayable",
					"type": "function"
				},
				{
					"inputs": [
						{
							"internalType": "uint256",
							"name": "",
							"type": "uint256"
						}
					],
					"name": "simpleStorageContracts",
					"outputs": [
						{
							"internalType": "contract SimpleStorage",
							"name": "",
							"type": "address"
						}
					],
					"stateMutability": "view",
					"type": "function"
				}
			],
			"devdoc": {
				"kind": "dev",
				"methods": {},
				"version": 1
			},
			"evm": {
				"assembly": "    /* \"StorageFactory.sol\":116:693  contract StorageFactory {... */\n  mstore(0x40, 0x80)\n  callvalue\n  dup1\n  iszero\n  tag_1\n  jumpi\n  revert(0x00, 0x00)\ntag_1:\n  pop\n  dataSize(sub_0)\n  dup1\n  dataOffset(sub_0)\n  0x00\n  codecopy\n  0x00\n  return\nstop\n\nsub_0: assembly {\n        /* \"StorageFactory.sol\":116:693  contract StorageFactory {... */\n      mstore(0x40, 0x80)\n      callvalue\n      dup1\n      iszero\n      tag_1\n      jumpi\n      revert(0x00, 0x00)\n    tag_1:\n      pop\n      jumpi(tag_2, lt(calldatasize, 0x04))\n      shr(0xe0, calldataload(0x00))\n      dup1\n      0x1563700f\n      eq\n      tag_3\n      jumpi\n      dup1\n      0x40d66b3b\n      eq\n      tag_4\n      jumpi\n      dup1\n      0xa5772eba\n      eq\n      tag_5\n      jumpi\n      dup1\n      0xb51c8444\n      eq\n      tag_6\n      jumpi\n    tag_2:\n      revert(0x00, 0x00)\n        /* \"StorageFactory.sol\":374:521  function sfStore(uint256 _simpleStorageIndex, uint256 _number) public {... */\n    tag_3:\n      tag_7\n      0x04\n      dup1\n      calldatasize\n      sub\n      dup2\n      add\n      swap1\n      tag_8\n      swap2\n      swap1\n      tag_9\n      jump\t// in\n    tag_8:\n      tag_10\n      jump\t// in\n    tag_7:\n      stop\n        /* \"StorageFactory.sol\":201:366  function createSimpleStorage() public {... */\n    tag_4:\n      tag_11\n      tag_12\n      jump\t// in\n    tag_11:\n      stop\n        /* \"StorageFactory.sol\":147:192  SimpleStorage[] public simpleStorageContracts */\n    tag_5:\n      tag_13\n      0x04\n      dup1\n      calldatasize\n      sub\n      dup2\n      add\n      swap1\n      tag_14\n      swap2\n      swap1\n      tag_15\n      jump\t// in\n    tag_14:\n      tag_16\n      jump\t// in\n    tag_13:\n      mload(0x40)\n      tag_17\n      swap2\n      swap1\n      tag_18\n      jump\t// in\n    tag_17:\n      mload(0x40)\n      dup1\n      swap2\n      sub\n      swap1\n      return\n        /* \"StorageFactory.sol\":529:690  function sfGetNumber(uint256 _simpleStorageIndex) public view returns (uint256) {... */\n    tag_6:\n      tag_19\n      0x04\n      dup1\n      calldatasize\n      sub\n      dup2\n      add\n      swap1\n      tag_20\n      swap2\n      swap1\n      tag_15\n      jump\t// in\n    tag_20:\n      tag_21\n      jump\t// in\n    tag_19:\n      mload(0x40)\n      tag_22\n      swap2\n      swap1\n      tag_23\n      jump\t// in\n    tag_22:\n      mload(0x40)\n      dup1\n      swap2\n      sub\n      swap1\n      return\n        /* \"StorageFactory.sol\":374:521  function sfStore(uint256 _simpleStorageIndex, uint256 _number) public {... */\n    tag_10:\n        /* \"StorageFactory.sol\":455:477  simpleStorageContracts */\n      0x00\n        /* \"StorageFactory.sol\":478:497  _simpleStorageIndex */\n      dup3\n        /* \"StorageFactory.sol\":455:498  simpleStorageContracts[_simpleStorageIndex] */\n      dup2\n      sload\n      dup2\n      lt\n      tag_25\n      jumpi\n      tag_26\n      tag_27\n      jump\t// in\n    tag_26:\n    tag_25:\n      swap1\n      0x00\n      mstore\n      keccak256(0x00, 0x20)\n      add\n      0x00\n      swap1\n      sload\n      swap1\n      0x0100\n      exp\n      swap1\n      div\n      0xffffffffffffffffffffffffffffffffffffffff\n      and\n        /* \"StorageFactory.sol\":455:504  simpleStorageContracts[_simpleStorageIndex].store */\n      0xffffffffffffffffffffffffffffffffffffffff\n      and\n      0x6057361d\n        /* \"StorageFactory.sol\":505:512  _number */\n      dup3\n        /* \"StorageFactory.sol\":455:513  simpleStorageContracts[_simpleStorageIndex].store(_number) */\n      mload(0x40)\n      dup3\n      0xffffffff\n      and\n      0xe0\n      shl\n      dup2\n      mstore\n      0x04\n      add\n      tag_29\n      swap2\n      swap1\n      tag_23\n      jump\t// in\n    tag_29:\n      0x00\n      mload(0x40)\n      dup1\n      dup4\n      sub\n      dup2\n      0x00\n      dup8\n      dup1\n      extcodesize\n      iszero\n      dup1\n      iszero\n      tag_30\n      jumpi\n      revert(0x00, 0x00)\n    tag_30:\n      pop\n      gas\n      call\n      iszero\n      dup1\n      iszero\n      tag_32\n      jumpi\n      returndatacopy(0x00, 0x00, returndatasize)\n      revert(0x00, returndatasize)\n    tag_32:\n      pop\n      pop\n      pop\n      pop\n        /* \"StorageFactory.sol\":374:521  function sfStore(uint256 _simpleStorageIndex, uint256 _number) public {... */\n      pop\n      pop\n      jump\t// out\n        /* \"StorageFactory.sol\":201:366  function createSimpleStorage() public {... */\n    tag_12:\n        /* \"StorageFactory.sol\":250:280  SimpleStorage newSimpleStorage */\n      0x00\n        /* \"StorageFactory.sol\":283:302  new SimpleStorage() */\n      mload(0x40)\n      tag_34\n      swap1\n      tag_35\n      jump\t// in\n    tag_34:\n      mload(0x40)\n      dup1\n      swap2\n      sub\n      swap1\n      0x00\n      create\n      dup1\n      iszero\n      dup1\n      iszero\n      tag_36\n      jumpi\n      returndatacopy(0x00, 0x00, returndatasize)\n      revert(0x00, returndatasize)\n    tag_36:\n      pop\n        /* \"StorageFactory.sol\":250:302  SimpleStorage newSimpleStorage = new SimpleStorage() */\n      swap1\n      pop\n        /* \"StorageFactory.sol\":313:335  simpleStorageContracts */\n      0x00\n        /* \"StorageFactory.sol\":341:357  newSimpleStorage */\n      dup2\n        /* \"StorageFactory.sol\":313:358  simpleStorageContracts.push(newSimpleStorage) */\n      swap1\n      dup1\n      0x01\n      dup2\n      sload\n      add\n      dup1\n      dup3\n      sstore\n      dup1\n      swap2\n      pop\n      pop\n      0x01\n      swap1\n      sub\n      swap1\n      0x00\n      mstore\n      keccak256(0x00, 0x20)\n      add\n      0x00\n      swap1\n      swap2\n      swap1\n      swap2\n      swap1\n      swap2\n      0x0100\n      exp\n      dup2\n      sload\n      dup2\n      0xffffffffffffffffffffffffffffffffffffffff\n      mul\n      not\n      and\n      swap1\n      dup4\n      0xffffffffffffffffffffffffffffffffffffffff\n      and\n      mul\n      or\n      swap1\n      sstore\n      pop\n        /* \"StorageFactory.sol\":239:366  {... */\n      pop\n        /* \"StorageFactory.sol\":201:366  function createSimpleStorage() public {... */\n      jump\t// out\n        /* \"StorageFactory.sol\":147:192  SimpleStorage[] public simpleStorageContracts */\n    tag_16:\n      0x00\n      dup2\n      dup2\n      sload\n      dup2\n      lt\n      tag_38\n      jumpi\n      0x00\n      dup1\n      revert\n    tag_38:\n      swap1\n      0x00\n      mstore\n      keccak256(0x00, 0x20)\n      add\n      0x00\n      swap2\n      pop\n      sload\n      swap1\n      0x0100\n      exp\n      swap1\n      div\n      0xffffffffffffffffffffffffffffffffffffffff\n      and\n      dup2\n      jump\t// out\n        /* \"StorageFactory.sol\":529:690  function sfGetNumber(uint256 _simpleStorageIndex) public view returns (uint256) {... */\n    tag_21:\n        /* \"StorageFactory.sol\":600:607  uint256 */\n      0x00\n        /* \"StorageFactory.sol\":627:649  simpleStorageContracts */\n      0x00\n        /* \"StorageFactory.sol\":650:669  _simpleStorageIndex */\n      dup3\n        /* \"StorageFactory.sol\":627:670  simpleStorageContracts[_simpleStorageIndex] */\n      dup2\n      sload\n      dup2\n      lt\n      tag_41\n      jumpi\n      tag_42\n      tag_27\n      jump\t// in\n    tag_42:\n    tag_41:\n      swap1\n      0x00\n      mstore\n      keccak256(0x00, 0x20)\n      add\n      0x00\n      swap1\n      sload\n      swap1\n      0x0100\n      exp\n      swap1\n      div\n      0xffffffffffffffffffffffffffffffffffffffff\n      and\n        /* \"StorageFactory.sol\":627:680  simpleStorageContracts[_simpleStorageIndex].getNumber */\n      0xffffffffffffffffffffffffffffffffffffffff\n      and\n      0xf2c9ecd8\n        /* \"StorageFactory.sol\":627:682  simpleStorageContracts[_simpleStorageIndex].getNumber() */\n      mload(0x40)\n      dup2\n      0xffffffff\n      and\n      0xe0\n      shl\n      dup2\n      mstore\n      0x04\n      add\n      0x20\n      mload(0x40)\n      dup1\n      dup4\n      sub\n      dup2\n      dup7\n      gas\n      staticcall\n      iszero\n      dup1\n      iszero\n      tag_45\n      jumpi\n      returndatacopy(0x00, 0x00, returndatasize)\n      revert(0x00, returndatasize)\n    tag_45:\n      pop\n      pop\n      pop\n      pop\n      mload(0x40)\n      returndatasize\n      not(0x1f)\n      0x1f\n      dup3\n      add\n      and\n      dup3\n      add\n      dup1\n      0x40\n      mstore\n      pop\n      dup2\n      add\n      swap1\n      tag_46\n      swap2\n      swap1\n      tag_47\n      jump\t// in\n    tag_46:\n        /* \"StorageFactory.sol\":620:682  return simpleStorageContracts[_simpleStorageIndex].getNumber() */\n      swap1\n      pop\n        /* \"StorageFactory.sol\":529:690  function sfGetNumber(uint256 _simpleStorageIndex) public view returns (uint256) {... */\n      swap2\n      swap1\n      pop\n      jump\t// out\n    tag_35:\n      dataSize(sub_0)\n      dup1\n      dataOffset(sub_0)\n      dup4\n      codecopy\n      add\n      swap1\n      jump\t// out\n        /* \"#utility.yul\":88:205   */\n    tag_49:\n        /* \"#utility.yul\":197:198   */\n      0x00\n        /* \"#utility.yul\":194:195   */\n      0x00\n        /* \"#utility.yul\":187:199   */\n      revert\n        /* \"#utility.yul\":334:411   */\n    tag_51:\n        /* \"#utility.yul\":371:378   */\n      0x00\n        /* \"#utility.yul\":400:405   */\n      dup2\n        /* \"#utility.yul\":389:405   */\n      swap1\n      pop\n        /* \"#utility.yul\":334:411   */\n      swap2\n      swap1\n      pop\n      jump\t// out\n        /* \"#utility.yul\":417:539   */\n    tag_52:\n        /* \"#utility.yul\":490:514   */\n      tag_68\n        /* \"#utility.yul\":508:513   */\n      dup2\n        /* \"#utility.yul\":490:514   */\n      tag_51\n      jump\t// in\n    tag_68:\n        /* \"#utility.yul\":483:488   */\n      dup2\n        /* \"#utility.yul\":480:515   */\n      eq\n        /* \"#utility.yul\":470:533   */\n      tag_69\n      jumpi\n        /* \"#utility.yul\":529:530   */\n      0x00\n        /* \"#utility.yul\":526:527   */\n      0x00\n        /* \"#utility.yul\":519:531   */\n      revert\n        /* \"#utility.yul\":470:533   */\n    tag_69:\n        /* \"#utility.yul\":417:539   */\n      pop\n      jump\t// out\n        /* \"#utility.yul\":545:684   */\n    tag_53:\n        /* \"#utility.yul\":591:596   */\n      0x00\n        /* \"#utility.yul\":629:635   */\n      dup2\n        /* \"#utility.yul\":616:636   */\n      calldataload\n        /* \"#utility.yul\":607:636   */\n      swap1\n      pop\n        /* \"#utility.yul\":645:678   */\n      tag_71\n        /* \"#utility.yul\":672:677   */\n      dup2\n        /* \"#utility.yul\":645:678   */\n      tag_52\n      jump\t// in\n    tag_71:\n        /* \"#utility.yul\":545:684   */\n      swap3\n      swap2\n      pop\n      pop\n      jump\t// out\n        /* \"#utility.yul\":690:1164   */\n    tag_9:\n        /* \"#utility.yul\":758:764   */\n      0x00\n        /* \"#utility.yul\":766:772   */\n      0x00\n        /* \"#utility.yul\":815:817   */\n      0x40\n        /* \"#utility.yul\":803:812   */\n      dup4\n        /* \"#utility.yul\":794:801   */\n      dup6\n        /* \"#utility.yul\":790:813   */\n      sub\n        /* \"#utility.yul\":786:818   */\n      slt\n        /* \"#utility.yul\":783:902   */\n      iszero\n      tag_73\n      jumpi\n        /* \"#utility.yul\":821:900   */\n      tag_74\n      tag_49\n      jump\t// in\n    tag_74:\n        /* \"#utility.yul\":783:902   */\n    tag_73:\n        /* \"#utility.yul\":941:942   */\n      0x00\n        /* \"#utility.yul\":966:1019   */\n      tag_75\n        /* \"#utility.yul\":1011:1018   */\n      dup6\n        /* \"#utility.yul\":1002:1008   */\n      dup3\n        /* \"#utility.yul\":991:1000   */\n      dup7\n        /* \"#utility.yul\":987:1009   */\n      add\n        /* \"#utility.yul\":966:1019   */\n      tag_53\n      jump\t// in\n    tag_75:\n        /* \"#utility.yul\":956:1019   */\n      swap3\n      pop\n        /* \"#utility.yul\":912:1029   */\n      pop\n        /* \"#utility.yul\":1068:1070   */\n      0x20\n        /* \"#utility.yul\":1094:1147   */\n      tag_76\n        /* \"#utility.yul\":1139:1146   */\n      dup6\n        /* \"#utility.yul\":1130:1136   */\n      dup3\n        /* \"#utility.yul\":1119:1128   */\n      dup7\n        /* \"#utility.yul\":1115:1137   */\n      add\n        /* \"#utility.yul\":1094:1147   */\n      tag_53\n      jump\t// in\n    tag_76:\n        /* \"#utility.yul\":1084:1147   */\n      swap2\n      pop\n        /* \"#utility.yul\":1039:1157   */\n      pop\n        /* \"#utility.yul\":690:1164   */\n      swap3\n      pop\n      swap3\n      swap1\n      pop\n      jump\t// out\n        /* \"#utility.yul\":1170:1499   */\n    tag_15:\n        /* \"#utility.yul\":1229:1235   */\n      0x00\n        /* \"#utility.yul\":1278:1280   */\n      0x20\n        /* \"#utility.yul\":1266:1275   */\n      dup3\n        /* \"#utility.yul\":1257:1264   */\n      dup5\n        /* \"#utility.yul\":1253:1276   */\n      sub\n        /* \"#utility.yul\":1249:1281   */\n      slt\n        /* \"#utility.yul\":1246:1365   */\n      iszero\n      tag_78\n      jumpi\n        /* \"#utility.yul\":1284:1363   */\n      tag_79\n      tag_49\n      jump\t// in\n    tag_79:\n        /* \"#utility.yul\":1246:1365   */\n    tag_78:\n        /* \"#utility.yul\":1404:1405   */\n      0x00\n        /* \"#utility.yul\":1429:1482   */\n      tag_80\n        /* \"#utility.yul\":1474:1481   */\n      dup5\n        /* \"#utility.yul\":1465:1471   */\n      dup3\n        /* \"#utility.yul\":1454:1463   */\n      dup6\n        /* \"#utility.yul\":1450:1472   */\n      add\n        /* \"#utility.yul\":1429:1482   */\n      tag_53\n      jump\t// in\n    tag_80:\n        /* \"#utility.yul\":1419:1482   */\n      swap2\n      pop\n        /* \"#utility.yul\":1375:1492   */\n      pop\n        /* \"#utility.yul\":1170:1499   */\n      swap3\n      swap2\n      pop\n      pop\n      jump\t// out\n        /* \"#utility.yul\":1505:1631   */\n    tag_54:\n        /* \"#utility.yul\":1542:1549   */\n      0x00\n        /* \"#utility.yul\":1582:1624   */\n      0xffffffffffffffffffffffffffffffffffffffff\n        /* \"#utility.yul\":1575:1580   */\n      dup3\n        /* \"#utility.yul\":1571:1625   */\n      and\n        /* \"#utility.yul\":1560:1625   */\n      swap1\n      pop\n        /* \"#utility.yul\":1505:1631   */\n      swap2\n      swap1\n      pop\n      jump\t// out\n        /* \"#utility.yul\":1637:1697   */\n    tag_55:\n        /* \"#utility.yul\":1665:1668   */\n      0x00\n        /* \"#utility.yul\":1686:1691   */\n      dup2\n        /* \"#utility.yul\":1679:1691   */\n      swap1\n      pop\n        /* \"#utility.yul\":1637:1697   */\n      swap2\n      swap1\n      pop\n      jump\t// out\n        /* \"#utility.yul\":1703:1845   */\n    tag_56:\n        /* \"#utility.yul\":1753:1762   */\n      0x00\n        /* \"#utility.yul\":1786:1839   */\n      tag_84\n        /* \"#utility.yul\":1804:1838   */\n      tag_85\n        /* \"#utility.yul\":1813:1837   */\n      tag_86\n        /* \"#utility.yul\":1831:1836   */\n      dup5\n        /* \"#utility.yul\":1813:1837   */\n      tag_54\n      jump\t// in\n    tag_86:\n        /* \"#utility.yul\":1804:1838   */\n      tag_55\n      jump\t// in\n    tag_85:\n        /* \"#utility.yul\":1786:1839   */\n      tag_54\n      jump\t// in\n    tag_84:\n        /* \"#utility.yul\":1773:1839   */\n      swap1\n      pop\n        /* \"#utility.yul\":1703:1845   */\n      swap2\n      swap1\n      pop\n      jump\t// out\n        /* \"#utility.yul\":1851:1977   */\n    tag_57:\n        /* \"#utility.yul\":1901:1910   */\n      0x00\n        /* \"#utility.yul\":1934:1971   */\n      tag_88\n        /* \"#utility.yul\":1965:1970   */\n      dup3\n        /* \"#utility.yul\":1934:1971   */\n      tag_56\n      jump\t// in\n    tag_88:\n        /* \"#utility.yul\":1921:1971   */\n      swap1\n      pop\n        /* \"#utility.yul\":1851:1977   */\n      swap2\n      swap1\n      pop\n      jump\t// out\n        /* \"#utility.yul\":1983:2130   */\n    tag_58:\n        /* \"#utility.yul\":2054:2063   */\n      0x00\n        /* \"#utility.yul\":2087:2124   */\n      tag_90\n        /* \"#utility.yul\":2118:2123   */\n      dup3\n        /* \"#utility.yul\":2087:2124   */\n      tag_57\n      jump\t// in\n    tag_90:\n        /* \"#utility.yul\":2074:2124   */\n      swap1\n      pop\n        /* \"#utility.yul\":1983:2130   */\n      swap2\n      swap1\n      pop\n      jump\t// out\n        /* \"#utility.yul\":2136:2309   */\n    tag_59:\n        /* \"#utility.yul\":2244:2302   */\n      tag_92\n        /* \"#utility.yul\":2296:2301   */\n      dup2\n        /* \"#utility.yul\":2244:2302   */\n      tag_58\n      jump\t// in\n    tag_92:\n        /* \"#utility.yul\":2239:2242   */\n      dup3\n        /* \"#utility.yul\":2232:2303   */\n      mstore\n        /* \"#utility.yul\":2136:2309   */\n      pop\n      pop\n      jump\t// out\n        /* \"#utility.yul\":2315:2579   */\n    tag_18:\n        /* \"#utility.yul\":2429:2433   */\n      0x00\n        /* \"#utility.yul\":2467:2469   */\n      0x20\n        /* \"#utility.yul\":2456:2465   */\n      dup3\n        /* \"#utility.yul\":2452:2470   */\n      add\n        /* \"#utility.yul\":2444:2470   */\n      swap1\n      pop\n        /* \"#utility.yul\":2480:2572   */\n      tag_94\n        /* \"#utility.yul\":2569:2570   */\n      0x00\n        /* \"#utility.yul\":2558:2567   */\n      dup4\n        /* \"#utility.yul\":2554:2571   */\n      add\n        /* \"#utility.yul\":2545:2551   */\n      dup5\n        /* \"#utility.yul\":2480:2572   */\n      tag_59\n      jump\t// in\n    tag_94:\n        /* \"#utility.yul\":2315:2579   */\n      swap3\n      swap2\n      pop\n      pop\n      jump\t// out\n        /* \"#utility.yul\":2585:2703   */\n    tag_60:\n        /* \"#utility.yul\":2672:2696   */\n      tag_96\n        /* \"#utility.yul\":2690:2695   */\n      dup2\n        /* \"#utility.yul\":2672:2696   */\n      tag_51\n      jump\t// in\n    tag_96:\n        /* \"#utility.yul\":2667:2670   */\n      dup3\n        /* \"#utility.yul\":2660:2697   */\n      mstore\n        /* \"#utility.yul\":2585:2703   */\n      pop\n      pop\n      jump\t// out\n        /* \"#utility.yul\":2709:2931   */\n    tag_23:\n        /* \"#utility.yul\":2802:2806   */\n      0x00\n        /* \"#utility.yul\":2840:2842   */\n      0x20\n        /* \"#utility.yul\":2829:2838   */\n      dup3\n        /* \"#utility.yul\":2825:2843   */\n      add\n        /* \"#utility.yul\":2817:2843   */\n      swap1\n      pop\n        /* \"#utility.yul\":2853:2924   */\n      tag_98\n        /* \"#utility.yul\":2921:2922   */\n      0x00\n        /* \"#utility.yul\":2910:2919   */\n      dup4\n        /* \"#utility.yul\":2906:2923   */\n      add\n        /* \"#utility.yul\":2897:2903   */\n      dup5\n        /* \"#utility.yul\":2853:2924   */\n      tag_60\n      jump\t// in\n    tag_98:\n        /* \"#utility.yul\":2709:2931   */\n      swap3\n      swap2\n      pop\n      pop\n      jump\t// out\n        /* \"#utility.yul\":2937:3117   */\n    tag_27:\n        /* \"#utility.yul\":2985:3062   */\n      0x4e487b7100000000000000000000000000000000000000000000000000000000\n        /* \"#utility.yul\":2982:2983   */\n      0x00\n        /* \"#utility.yul\":2975:3063   */\n      mstore\n        /* \"#utility.yul\":3082:3086   */\n      0x32\n        /* \"#utility.yul\":3079:3080   */\n      0x04\n        /* \"#utility.yul\":3072:3087   */\n      mstore\n        /* \"#utility.yul\":3106:3110   */\n      0x24\n        /* \"#utility.yul\":3103:3104   */\n      0x00\n        /* \"#utility.yul\":3096:3111   */\n      revert\n        /* \"#utility.yul\":3123:3266   */\n    tag_61:\n        /* \"#utility.yul\":3180:3185   */\n      0x00\n        /* \"#utility.yul\":3211:3217   */\n      dup2\n        /* \"#utility.yul\":3205:3218   */\n      mload\n        /* \"#utility.yul\":3196:3218   */\n      swap1\n      pop\n        /* \"#utility.yul\":3227:3260   */\n      tag_101\n        /* \"#utility.yul\":3254:3259   */\n      dup2\n        /* \"#utility.yul\":3227:3260   */\n      tag_52\n      jump\t// in\n    tag_101:\n        /* \"#utility.yul\":3123:3266   */\n      swap3\n      swap2\n      pop\n      pop\n      jump\t// out\n        /* \"#utility.yul\":3272:3623   */\n    tag_47:\n        /* \"#utility.yul\":3342:3348   */\n      0x00\n        /* \"#utility.yul\":3391:3393   */\n      0x20\n        /* \"#utility.yul\":3379:3388   */\n      dup3\n        /* \"#utility.yul\":3370:3377   */\n      dup5\n        /* \"#utility.yul\":3366:3389   */\n      sub\n        /* \"#utility.yul\":3362:3394   */\n      slt\n        /* \"#utility.yul\":3359:3478   */\n      iszero\n      tag_103\n      jumpi\n        /* \"#utility.yul\":3397:3476   */\n      tag_104\n      tag_49\n      jump\t// in\n    tag_104:\n        /* \"#utility.yul\":3359:3478   */\n    tag_103:\n        /* \"#utility.yul\":3517:3518   */\n      0x00\n        /* \"#utility.yul\":3542:3606   */\n      tag_105\n        /* \"#utility.yul\":3598:3605   */\n      dup5\n        /* \"#utility.yul\":3589:3595   */\n      dup3\n        /* \"#utility.yul\":3578:3587   */\n      dup6\n        /* \"#utility.yul\":3574:3596   */\n      add\n        /* \"#utility.yul\":3542:3606   */\n      tag_61\n      jump\t// in\n    tag_105:\n        /* \"#utility.yul\":3532:3606   */\n      swap2\n      pop\n        /* \"#utility.yul\":3488:3616   */\n      pop\n        /* \"#utility.yul\":3272:3623   */\n      swap3\n      swap2\n      pop\n      pop\n      jump\t// out\n    stop\n\n    sub_0: assembly {\n            /* \"SimpleStorage.sol\":57:1178  contract SimpleStorage {... */\n          mstore(0x40, 0x80)\n          callvalue\n          dup1\n          iszero\n          tag_1\n          jumpi\n          revert(0x00, 0x00)\n        tag_1:\n          pop\n          dataSize(sub_0)\n          dup1\n          dataOffset(sub_0)\n          0x00\n          codecopy\n          0x00\n          return\n        stop\n\n        sub_0: assembly {\n                /* \"SimpleStorage.sol\":57:1178  contract SimpleStorage {... */\n              mstore(0x40, 0x80)\n              callvalue\n              dup1\n              iszero\n              tag_1\n              jumpi\n              revert(0x00, 0x00)\n            tag_1:\n              pop\n              jumpi(tag_2, lt(calldatasize, 0x04))\n              shr(0xe0, calldataload(0x00))\n              dup1\n              0x61d1e7d5\n              gt\n              tag_15\n              jumpi\n              dup1\n              0x61d1e7d5\n              eq\n              tag_9\n              jumpi\n              dup1\n              0x8381f58a\n              eq\n              tag_10\n              jumpi\n              dup1\n              0x9b66e0ef\n              eq\n              tag_11\n              jumpi\n              dup1\n              0xd94ca9d7\n              eq\n              tag_12\n              jumpi\n              dup1\n              0xe2e4521a\n              eq\n              tag_13\n              jumpi\n              dup1\n              0xf2c9ecd8\n              eq\n              tag_14\n              jumpi\n              jump(tag_2)\n            tag_15:\n              dup1\n              0x0b9e24c4\n              eq\n              tag_3\n              jumpi\n              dup1\n              0x246a960a\n              eq\n              tag_4\n              jumpi\n              dup1\n              0x2fae4ffd\n              eq\n              tag_5\n              jumpi\n              dup1\n              0x3fb5c1cb\n              eq\n              tag_6\n              jumpi\n              dup1\n              0x6057361d\n              eq\n              tag_7\n              jumpi\n              dup1\n              0x607b9ab0\n              eq\n              tag_8\n              jumpi\n            tag_2:\n              revert(0x00, 0x00)\n                /* \"SimpleStorage.sol\":170:206  uint256[5] public fixedArrayOfNumber */\n            tag_3:\n              tag_16\n              0x04\n              dup1\n              calldatasize\n              sub\n              dup2\n              add\n              swap1\n              tag_17\n              swap2\n              swap1\n              tag_18\n              jump\t// in\n            tag_17:\n              tag_19\n              jump\t// in\n            tag_16:\n              mload(0x40)\n              tag_20\n              swap2\n              swap1\n              tag_21\n              jump\t// in\n            tag_20:\n              mload(0x40)\n              dup1\n              swap2\n              sub\n              swap1\n              return\n                /* \"SimpleStorage.sol\":974:1089  function addNumberForName(string memory name, uint256 _number) public {... */\n            tag_4:\n              tag_22\n              0x04\n              dup1\n              calldatasize\n              sub\n              dup2\n              add\n              swap1\n              tag_23\n              swap2\n              swap1\n              tag_24\n              jump\t// in\n            tag_23:\n              tag_25\n              jump\t// in\n            tag_22:\n              stop\n                /* \"SimpleStorage.sol\":328:374  mapping(string => uint256) public nameToNumber */\n            tag_5:\n              tag_26\n              0x04\n              dup1\n              calldatasize\n              sub\n              dup2\n              add\n              swap1\n              tag_27\n              swap2\n              swap1\n              tag_28\n              jump\t// in\n            tag_27:\n              tag_29\n              jump\t// in\n            tag_26:\n              mload(0x40)\n              tag_30\n              swap2\n              swap1\n              tag_21\n              jump\t// in\n            tag_30:\n              mload(0x40)\n              dup1\n              swap2\n              sub\n              swap1\n              return\n                /* \"SimpleStorage.sol\":381:461  function setNumber(uint256 newNumber) public {... */\n            tag_6:\n              tag_31\n              0x04\n              dup1\n              calldatasize\n              sub\n              dup2\n              add\n              swap1\n              tag_32\n              swap2\n              swap1\n              tag_18\n              jump\t// in\n            tag_32:\n              tag_33\n              jump\t// in\n            tag_31:\n              stop\n                /* \"SimpleStorage.sol\":467:547  function store(uint256 _number) public virtual {... */\n            tag_7:\n              tag_34\n              0x04\n              dup1\n              calldatasize\n              sub\n              dup2\n              add\n              swap1\n              tag_35\n              swap2\n              swap1\n              tag_18\n              jump\t// in\n            tag_35:\n              tag_36\n              jump\t// in\n            tag_34:\n              stop\n                /* \"SimpleStorage.sol\":134:164  uint256[] public arrayOfNumber */\n            tag_8:\n              tag_37\n              0x04\n              dup1\n              calldatasize\n              sub\n              dup2\n              add\n              swap1\n              tag_38\n              swap2\n              swap1\n              tag_18\n              jump\t// in\n            tag_38:\n              tag_39\n              jump\t// in\n            tag_37:\n              mload(0x40)\n              tag_40\n              swap2\n              swap1\n              tag_21\n              jump\t// in\n            tag_40:\n              mload(0x40)\n              dup1\n              swap2\n              sub\n              swap1\n              return\n                /* \"SimpleStorage.sol\":795:968  function pushToDynamicArrayOfPerson(string memory name, uint256 _number)... */\n            tag_9:\n              tag_41\n              0x04\n              dup1\n              calldatasize\n              sub\n              dup2\n              add\n              swap1\n              tag_42\n              swap2\n              swap1\n              tag_24\n              jump\t// in\n            tag_42:\n              tag_43\n              jump\t// in\n            tag_41:\n              stop\n                /* \"SimpleStorage.sol\":86:107  uint256 public number */\n            tag_10:\n              tag_44\n              tag_45\n              jump\t// in\n            tag_44:\n              mload(0x40)\n              tag_46\n              swap2\n              swap1\n              tag_21\n              jump\t// in\n            tag_46:\n              mload(0x40)\n              dup1\n              swap2\n              sub\n              swap1\n              return\n                /* \"SimpleStorage.sol\":285:321  Person[] public dynamicArrayOfPerson */\n            tag_11:\n              tag_47\n              0x04\n              dup1\n              calldatasize\n              sub\n              dup2\n              add\n              swap1\n              tag_48\n              swap2\n              swap1\n              tag_18\n              jump\t// in\n            tag_48:\n              tag_49\n              jump\t// in\n            tag_47:\n              mload(0x40)\n              tag_50\n              swap3\n              swap2\n              swap1\n              tag_51\n              jump\t// in\n            tag_50:\n              mload(0x40)\n              dup1\n              swap2\n              sub\n              swap1\n              return\n                /* \"SimpleStorage.sol\":660:789  function pushToFixedArrayOfNumber(uint256 index, uint256 newNumber) public {... */\n            tag_12:\n              tag_52\n              0x04\n              dup1\n              calldatasize\n              sub\n              dup2\n              add\n              swap1\n              tag_53\n              swap2\n              swap1\n              tag_54\n              jump\t// in\n            tag_53:\n              tag_55\n              jump\t// in\n            tag_52:\n              stop\n                /* \"SimpleStorage.sol\":553:654  function pushToArrayOfNumber(uint256 newNumber) public {... */\n            tag_13:\n              tag_56\n              0x04\n              dup1\n              calldatasize\n              sub\n              dup2\n              add\n              swap1\n              tag_57\n              swap2\n              swap1\n              tag_18\n              jump\t// in\n            tag_57:\n              tag_58\n              jump\t// in\n            tag_56:\n              stop\n                /* \"SimpleStorage.sol\":1095:1176  function getNumber() public view returns (uint256) {... */\n            tag_14:\n              tag_59\n              tag_60\n              jump\t// in\n            tag_59:\n              mload(0x40)\n              tag_61\n              swap2\n              swap1\n              tag_21\n              jump\t// in\n            tag_61:\n              mload(0x40)\n              dup1\n              swap2\n              sub\n              swap1\n              return\n                /* \"SimpleStorage.sol\":170:206  uint256[5] public fixedArrayOfNumber */\n            tag_19:\n              0x02\n              dup2\n              0x05\n              dup2\n              lt\n              tag_62\n              jumpi\n              0x00\n              dup1\n              revert\n            tag_62:\n              add\n              0x00\n              swap2\n              pop\n              swap1\n              pop\n              sload\n              dup2\n              jump\t// out\n                /* \"SimpleStorage.sol\":974:1089  function addNumberForName(string memory name, uint256 _number) public {... */\n            tag_25:\n                /* \"SimpleStorage.sol\":1075:1082  _number */\n              dup1\n                /* \"SimpleStorage.sol\":1054:1066  nameToNumber */\n              0x08\n                /* \"SimpleStorage.sol\":1067:1071  name */\n              dup4\n                /* \"SimpleStorage.sol\":1054:1072  nameToNumber[name] */\n              mload(0x40)\n              tag_65\n              swap2\n              swap1\n              tag_66\n              jump\t// in\n            tag_65:\n              swap1\n              dup2\n              mstore\n              0x20\n              add\n              mload(0x40)\n              dup1\n              swap2\n              sub\n              swap1\n              keccak256\n                /* \"SimpleStorage.sol\":1054:1082  nameToNumber[name] = _number */\n              dup2\n              swap1\n              sstore\n              pop\n                /* \"SimpleStorage.sol\":974:1089  function addNumberForName(string memory name, uint256 _number) public {... */\n              pop\n              pop\n              jump\t// out\n                /* \"SimpleStorage.sol\":328:374  mapping(string => uint256) public nameToNumber */\n            tag_29:\n              0x08\n              dup2\n              dup1\n              mload\n              0x20\n              dup2\n              add\n              dup3\n              add\n              dup1\n              mload\n              dup5\n              dup3\n              mstore\n              0x20\n              dup4\n              add\n              0x20\n              dup6\n              add\n              keccak256\n              dup2\n              dup4\n              mstore\n              dup1\n              swap6\n              pop\n              pop\n              pop\n              pop\n              pop\n              pop\n              0x00\n              swap2\n              pop\n              swap1\n              pop\n              sload\n              dup2\n              jump\t// out\n                /* \"SimpleStorage.sol\":381:461  function setNumber(uint256 newNumber) public {... */\n            tag_33:\n                /* \"SimpleStorage.sol\":445:454  newNumber */\n              dup1\n                /* \"SimpleStorage.sol\":436:442  number */\n              0x00\n                /* \"SimpleStorage.sol\":436:454  number = newNumber */\n              dup2\n              swap1\n              sstore\n              pop\n                /* \"SimpleStorage.sol\":381:461  function setNumber(uint256 newNumber) public {... */\n              pop\n              jump\t// out\n                /* \"SimpleStorage.sol\":467:547  function store(uint256 _number) public virtual {... */\n            tag_36:\n                /* \"SimpleStorage.sol\":533:540  _number */\n              dup1\n                /* \"SimpleStorage.sol\":524:530  number */\n              0x00\n                /* \"SimpleStorage.sol\":524:540  number = _number */\n              dup2\n              swap1\n              sstore\n              pop\n                /* \"SimpleStorage.sol\":467:547  function store(uint256 _number) public virtual {... */\n              pop\n              jump\t// out\n                /* \"SimpleStorage.sol\":134:164  uint256[] public arrayOfNumber */\n            tag_39:\n              0x01\n              dup2\n              dup2\n              sload\n              dup2\n              lt\n              tag_69\n              jumpi\n              0x00\n              dup1\n              revert\n            tag_69:\n              swap1\n              0x00\n              mstore\n              keccak256(0x00, 0x20)\n              add\n              0x00\n              swap2\n              pop\n              swap1\n              pop\n              sload\n              dup2\n              jump\t// out\n                /* \"SimpleStorage.sol\":795:968  function pushToDynamicArrayOfPerson(string memory name, uint256 _number)... */\n            tag_43:\n                /* \"SimpleStorage.sol\":897:917  dynamicArrayOfPerson */\n              0x07\n                /* \"SimpleStorage.sol\":923:960  Person({name: name, number: _number}) */\n              mload(0x40)\n              dup1\n              0x40\n              add\n              0x40\n              mstore\n              dup1\n                /* \"SimpleStorage.sol\":937:941  name */\n              dup5\n                /* \"SimpleStorage.sol\":923:960  Person({name: name, number: _number}) */\n              dup2\n              mstore\n              0x20\n              add\n                /* \"SimpleStorage.sol\":951:958  _number */\n              dup4\n                /* \"SimpleStorage.sol\":923:960  Person({name: name, number: _number}) */\n              dup2\n              mstore\n              pop\n                /* \"SimpleStorage.sol\":897:961  dynamicArrayOfPerson.push(Person({name: name, number: _number})) */\n              swap1\n              dup1\n              0x01\n              dup2\n              sload\n              add\n              dup1\n              dup3\n              sstore\n              dup1\n              swap2\n              pop\n              pop\n              0x01\n              swap1\n              sub\n              swap1\n              0x00\n              mstore\n              keccak256(0x00, 0x20)\n              swap1\n              0x02\n              mul\n              add\n              0x00\n              swap1\n              swap2\n              swap1\n              swap2\n              swap1\n              swap2\n              pop\n              0x00\n              dup3\n              add\n              mload\n              dup2\n              0x00\n              add\n              swap1\n              dup2\n              tag_73\n              swap2\n              swap1\n              tag_74\n              jump\t// in\n            tag_73:\n              pop\n              0x20\n              dup3\n              add\n              mload\n              dup2\n              0x01\n              add\n              sstore\n              pop\n              pop\n                /* \"SimpleStorage.sol\":795:968  function pushToDynamicArrayOfPerson(string memory name, uint256 _number)... */\n              pop\n              pop\n              jump\t// out\n                /* \"SimpleStorage.sol\":86:107  uint256 public number */\n            tag_45:\n              sload(0x00)\n              dup2\n              jump\t// out\n                /* \"SimpleStorage.sol\":285:321  Person[] public dynamicArrayOfPerson */\n            tag_49:\n              0x07\n              dup2\n              dup2\n              sload\n              dup2\n              lt\n              tag_75\n              jumpi\n              0x00\n              dup1\n              revert\n            tag_75:\n              swap1\n              0x00\n              mstore\n              keccak256(0x00, 0x20)\n              swap1\n              0x02\n              mul\n              add\n              0x00\n              swap2\n              pop\n              swap1\n              pop\n              dup1\n              0x00\n              add\n              dup1\n              sload\n              tag_77\n              swap1\n              tag_78\n              jump\t// in\n            tag_77:\n              dup1\n              0x1f\n              add\n              0x20\n              dup1\n              swap2\n              div\n              mul\n              0x20\n              add\n              mload(0x40)\n              swap1\n              dup2\n              add\n              0x40\n              mstore\n              dup1\n              swap3\n              swap2\n              swap1\n              dup2\n              dup2\n              mstore\n              0x20\n              add\n              dup3\n              dup1\n              sload\n              tag_79\n              swap1\n              tag_78\n              jump\t// in\n            tag_79:\n              dup1\n              iszero\n              tag_80\n              jumpi\n              dup1\n              0x1f\n              lt\n              tag_81\n              jumpi\n              0x0100\n              dup1\n              dup4\n              sload\n              div\n              mul\n              dup4\n              mstore\n              swap2\n              0x20\n              add\n              swap2\n              jump(tag_80)\n            tag_81:\n              dup3\n              add\n              swap2\n              swap1\n              0x00\n              mstore\n              keccak256(0x00, 0x20)\n              swap1\n            tag_82:\n              dup2\n              sload\n              dup2\n              mstore\n              swap1\n              0x01\n              add\n              swap1\n              0x20\n              add\n              dup1\n              dup4\n              gt\n              tag_82\n              jumpi\n              dup3\n              swap1\n              sub\n              0x1f\n              and\n              dup3\n              add\n              swap2\n            tag_80:\n              pop\n              pop\n              pop\n              pop\n              pop\n              swap1\n              dup1\n              0x01\n              add\n              sload\n              swap1\n              pop\n              dup3\n              jump\t// out\n                /* \"SimpleStorage.sol\":660:789  function pushToFixedArrayOfNumber(uint256 index, uint256 newNumber) public {... */\n            tag_55:\n                /* \"SimpleStorage.sol\":773:782  newNumber */\n              dup1\n                /* \"SimpleStorage.sol\":745:763  fixedArrayOfNumber */\n              0x02\n                /* \"SimpleStorage.sol\":764:769  index */\n              dup4\n                /* \"SimpleStorage.sol\":745:770  fixedArrayOfNumber[index] */\n              0x05\n              dup2\n              lt\n              tag_84\n              jumpi\n              tag_85\n              tag_86\n              jump\t// in\n            tag_85:\n            tag_84:\n              add\n                /* \"SimpleStorage.sol\":745:782  fixedArrayOfNumber[index] = newNumber */\n              dup2\n              swap1\n              sstore\n              pop\n                /* \"SimpleStorage.sol\":660:789  function pushToFixedArrayOfNumber(uint256 index, uint256 newNumber) public {... */\n              pop\n              pop\n              jump\t// out\n                /* \"SimpleStorage.sol\":553:654  function pushToArrayOfNumber(uint256 newNumber) public {... */\n            tag_58:\n                /* \"SimpleStorage.sol\":618:631  arrayOfNumber */\n              0x01\n                /* \"SimpleStorage.sol\":637:646  newNumber */\n              dup2\n                /* \"SimpleStorage.sol\":618:647  arrayOfNumber.push(newNumber) */\n              swap1\n              dup1\n              0x01\n              dup2\n              sload\n              add\n              dup1\n              dup3\n              sstore\n              dup1\n              swap2\n              pop\n              pop\n              0x01\n              swap1\n              sub\n              swap1\n              0x00\n              mstore\n              keccak256(0x00, 0x20)\n              add\n              0x00\n              swap1\n              swap2\n              swap1\n              swap2\n              swap1\n              swap2\n              pop\n              sstore\n                /* \"SimpleStorage.sol\":553:654  function pushToArrayOfNumber(uint256 newNumber) public {... */\n              pop\n              jump\t// out\n                /* \"SimpleStorage.sol\":1095:1176  function getNumber() public view returns (uint256) {... */\n            tag_60:\n                /* \"SimpleStorage.sol\":1137:1144  uint256 */\n              0x00\n                /* \"SimpleStorage.sol\":1163:1169  number */\n              sload(0x00)\n                /* \"SimpleStorage.sol\":1156:1169  return number */\n              swap1\n              pop\n                /* \"SimpleStorage.sol\":1095:1176  function getNumber() public view returns (uint256) {... */\n              swap1\n              jump\t// out\n                /* \"#utility.yul\":7:82   */\n            tag_91:\n                /* \"#utility.yul\":40:46   */\n              0x00\n                /* \"#utility.yul\":73:75   */\n              0x40\n                /* \"#utility.yul\":67:76   */\n              mload\n                /* \"#utility.yul\":57:76   */\n              swap1\n              pop\n                /* \"#utility.yul\":7:82   */\n              swap1\n              jump\t// out\n                /* \"#utility.yul\":88:205   */\n            tag_92:\n                /* \"#utility.yul\":197:198   */\n              0x00\n                /* \"#utility.yul\":194:195   */\n              0x00\n                /* \"#utility.yul\":187:199   */\n              revert\n                /* \"#utility.yul\":211:328   */\n            tag_93:\n                /* \"#utility.yul\":320:321   */\n              0x00\n                /* \"#utility.yul\":317:318   */\n              0x00\n                /* \"#utility.yul\":310:322   */\n              revert\n                /* \"#utility.yul\":334:411   */\n            tag_94:\n                /* \"#utility.yul\":371:378   */\n              0x00\n                /* \"#utility.yul\":400:405   */\n              dup2\n                /* \"#utility.yul\":389:405   */\n              swap1\n              pop\n                /* \"#utility.yul\":334:411   */\n              swap2\n              swap1\n              pop\n              jump\t// out\n                /* \"#utility.yul\":417:539   */\n            tag_95:\n                /* \"#utility.yul\":490:514   */\n              tag_136\n                /* \"#utility.yul\":508:513   */\n              dup2\n                /* \"#utility.yul\":490:514   */\n              tag_94\n              jump\t// in\n            tag_136:\n                /* \"#utility.yul\":483:488   */\n              dup2\n                /* \"#utility.yul\":480:515   */\n              eq\n                /* \"#utility.yul\":470:533   */\n              tag_137\n              jumpi\n                /* \"#utility.yul\":529:530   */\n              0x00\n                /* \"#utility.yul\":526:527   */\n              0x00\n                /* \"#utility.yul\":519:531   */\n              revert\n                /* \"#utility.yul\":470:533   */\n            tag_137:\n                /* \"#utility.yul\":417:539   */\n              pop\n              jump\t// out\n                /* \"#utility.yul\":545:684   */\n            tag_96:\n                /* \"#utility.yul\":591:596   */\n              0x00\n                /* \"#utility.yul\":629:635   */\n              dup2\n                /* \"#utility.yul\":616:636   */\n              calldataload\n                /* \"#utility.yul\":607:636   */\n              swap1\n              pop\n                /* \"#utility.yul\":645:678   */\n              tag_139\n                /* \"#utility.yul\":672:677   */\n              dup2\n                /* \"#utility.yul\":645:678   */\n              tag_95\n              jump\t// in\n            tag_139:\n                /* \"#utility.yul\":545:684   */\n              swap3\n              swap2\n              pop\n              pop\n              jump\t// out\n                /* \"#utility.yul\":690:1019   */\n            tag_18:\n                /* \"#utility.yul\":749:755   */\n              0x00\n                /* \"#utility.yul\":798:800   */\n              0x20\n                /* \"#utility.yul\":786:795   */\n              dup3\n                /* \"#utility.yul\":777:784   */\n              dup5\n                /* \"#utility.yul\":773:796   */\n              sub\n                /* \"#utility.yul\":769:801   */\n              slt\n                /* \"#utility.yul\":766:885   */\n              iszero\n              tag_141\n              jumpi\n                /* \"#utility.yul\":804:883   */\n              tag_142\n              tag_92\n              jump\t// in\n            tag_142:\n                /* \"#utility.yul\":766:885   */\n            tag_141:\n                /* \"#utility.yul\":924:925   */\n              0x00\n                /* \"#utility.yul\":949:1002   */\n              tag_143\n                /* \"#utility.yul\":994:1001   */\n              dup5\n                /* \"#utility.yul\":985:991   */\n              dup3\n                /* \"#utility.yul\":974:983   */\n              dup6\n                /* \"#utility.yul\":970:992   */\n              add\n                /* \"#utility.yul\":949:1002   */\n              tag_96\n              jump\t// in\n            tag_143:\n                /* \"#utility.yul\":939:1002   */\n              swap2\n              pop\n                /* \"#utility.yul\":895:1012   */\n              pop\n                /* \"#utility.yul\":690:1019   */\n              swap3\n              swap2\n              pop\n              pop\n              jump\t// out\n                /* \"#utility.yul\":1025:1143   */\n            tag_97:\n                /* \"#utility.yul\":1112:1136   */\n              tag_145\n                /* \"#utility.yul\":1130:1135   */\n              dup2\n                /* \"#utility.yul\":1112:1136   */\n              tag_94\n              jump\t// in\n            tag_145:\n                /* \"#utility.yul\":1107:1110   */\n              dup3\n                /* \"#utility.yul\":1100:1137   */\n              mstore\n                /* \"#utility.yul\":1025:1143   */\n              pop\n              pop\n              jump\t// out\n                /* \"#utility.yul\":1149:1371   */\n            tag_21:\n                /* \"#utility.yul\":1242:1246   */\n              0x00\n                /* \"#utility.yul\":1280:1282   */\n              0x20\n                /* \"#utility.yul\":1269:1278   */\n              dup3\n                /* \"#utility.yul\":1265:1283   */\n              add\n                /* \"#utility.yul\":1257:1283   */\n              swap1\n              pop\n                /* \"#utility.yul\":1293:1364   */\n              tag_147\n                /* \"#utility.yul\":1361:1362   */\n              0x00\n                /* \"#utility.yul\":1350:1359   */\n              dup4\n                /* \"#utility.yul\":1346:1363   */\n              add\n                /* \"#utility.yul\":1337:1343   */\n              dup5\n                /* \"#utility.yul\":1293:1364   */\n              tag_97\n              jump\t// in\n            tag_147:\n                /* \"#utility.yul\":1149:1371   */\n              swap3\n              swap2\n              pop\n              pop\n              jump\t// out\n                /* \"#utility.yul\":1377:1494   */\n            tag_98:\n                /* \"#utility.yul\":1486:1487   */\n              0x00\n                /* \"#utility.yul\":1483:1484   */\n              0x00\n                /* \"#utility.yul\":1476:1488   */\n              revert\n                /* \"#utility.yul\":1500:1617   */\n            tag_99:\n                /* \"#utility.yul\":1609:1610   */\n              0x00\n                /* \"#utility.yul\":1606:1607   */\n              0x00\n                /* \"#utility.yul\":1599:1611   */\n              revert\n                /* \"#utility.yul\":1623:1725   */\n            tag_100:\n                /* \"#utility.yul\":1664:1670   */\n              0x00\n                /* \"#utility.yul\":1715:1717   */\n              0x1f\n                /* \"#utility.yul\":1711:1718   */\n              not\n                /* \"#utility.yul\":1706:1708   */\n              0x1f\n                /* \"#utility.yul\":1699:1704   */\n              dup4\n                /* \"#utility.yul\":1695:1709   */\n              add\n                /* \"#utility.yul\":1691:1719   */\n              and\n                /* \"#utility.yul\":1681:1719   */\n              swap1\n              pop\n                /* \"#utility.yul\":1623:1725   */\n              swap2\n              swap1\n              pop\n              jump\t// out\n                /* \"#utility.yul\":1731:1911   */\n            tag_101:\n                /* \"#utility.yul\":1779:1856   */\n              0x4e487b7100000000000000000000000000000000000000000000000000000000\n                /* \"#utility.yul\":1776:1777   */\n              0x00\n                /* \"#utility.yul\":1769:1857   */\n              mstore\n                /* \"#utility.yul\":1876:1880   */\n              0x41\n                /* \"#utility.yul\":1873:1874   */\n              0x04\n                /* \"#utility.yul\":1866:1881   */\n              mstore\n                /* \"#utility.yul\":1900:1904   */\n              0x24\n                /* \"#utility.yul\":1897:1898   */\n              0x00\n                /* \"#utility.yul\":1890:1905   */\n              revert\n                /* \"#utility.yul\":1917:2198   */\n            tag_102:\n                /* \"#utility.yul\":2000:2027   */\n              tag_153\n                /* \"#utility.yul\":2022:2026   */\n              dup3\n                /* \"#utility.yul\":2000:2027   */\n              tag_100\n              jump\t// in\n            tag_153:\n                /* \"#utility.yul\":1992:1998   */\n              dup2\n                /* \"#utility.yul\":1988:2028   */\n              add\n                /* \"#utility.yul\":2130:2136   */\n              dup2\n                /* \"#utility.yul\":2118:2128   */\n              dup2\n                /* \"#utility.yul\":2115:2137   */\n              lt\n                /* \"#utility.yul\":2094:2112   */\n              0xffffffffffffffff\n                /* \"#utility.yul\":2082:2092   */\n              dup3\n                /* \"#utility.yul\":2079:2113   */\n              gt\n                /* \"#utility.yul\":2076:2138   */\n              or\n                /* \"#utility.yul\":2073:2161   */\n              iszero\n              tag_154\n              jumpi\n                /* \"#utility.yul\":2141:2159   */\n              tag_155\n              tag_101\n              jump\t// in\n            tag_155:\n                /* \"#utility.yul\":2073:2161   */\n            tag_154:\n                /* \"#utility.yul\":2181:2191   */\n              dup1\n                /* \"#utility.yul\":2177:2179   */\n              0x40\n                /* \"#utility.yul\":2170:2192   */\n              mstore\n                /* \"#utility.yul\":1960:2198   */\n              pop\n                /* \"#utility.yul\":1917:2198   */\n              pop\n              pop\n              jump\t// out\n                /* \"#utility.yul\":2204:2333   */\n            tag_103:\n                /* \"#utility.yul\":2238:2244   */\n              0x00\n                /* \"#utility.yul\":2265:2285   */\n              tag_157\n              tag_91\n              jump\t// in\n            tag_157:\n                /* \"#utility.yul\":2255:2285   */\n              swap1\n              pop\n                /* \"#utility.yul\":2294:2327   */\n              tag_158\n                /* \"#utility.yul\":2322:2326   */\n              dup3\n                /* \"#utility.yul\":2314:2320   */\n              dup3\n                /* \"#utility.yul\":2294:2327   */\n              tag_102\n              jump\t// in\n            tag_158:\n                /* \"#utility.yul\":2204:2333   */\n              swap2\n              swap1\n              pop\n              jump\t// out\n                /* \"#utility.yul\":2339:2647   */\n            tag_104:\n                /* \"#utility.yul\":2401:2405   */\n              0x00\n                /* \"#utility.yul\":2491:2509   */\n              0xffffffffffffffff\n                /* \"#utility.yul\":2483:2489   */\n              dup3\n                /* \"#utility.yul\":2480:2510   */\n              gt\n                /* \"#utility.yul\":2477:2533   */\n              iszero\n              tag_160\n              jumpi\n                /* \"#utility.yul\":2513:2531   */\n              tag_161\n              tag_101\n              jump\t// in\n            tag_161:\n                /* \"#utility.yul\":2477:2533   */\n            tag_160:\n                /* \"#utility.yul\":2551:2580   */\n              tag_162\n                /* \"#utility.yul\":2573:2579   */\n              dup3\n                /* \"#utility.yul\":2551:2580   */\n              tag_100\n              jump\t// in\n            tag_162:\n                /* \"#utility.yul\":2543:2580   */\n              swap1\n              pop\n                /* \"#utility.yul\":2635:2639   */\n              0x20\n                /* \"#utility.yul\":2629:2633   */\n              dup2\n                /* \"#utility.yul\":2625:2640   */\n              add\n                /* \"#utility.yul\":2617:2640   */\n              swap1\n              pop\n                /* \"#utility.yul\":2339:2647   */\n              swap2\n              swap1\n              pop\n              jump\t// out\n                /* \"#utility.yul\":2653:2801   */\n            tag_105:\n                /* \"#utility.yul\":2751:2757   */\n              dup3\n                /* \"#utility.yul\":2746:2749   */\n              dup2\n                /* \"#utility.yul\":2741:2744   */\n              dup4\n                /* \"#utility.yul\":2728:2758   */\n              calldatacopy\n                /* \"#utility.yul\":2792:2793   */\n              0x00\n                /* \"#utility.yul\":2783:2789   */\n              dup4\n                /* \"#utility.yul\":2778:2781   */\n              dup4\n                /* \"#utility.yul\":2774:2790   */\n              add\n                /* \"#utility.yul\":2767:2794   */\n              mstore\n                /* \"#utility.yul\":2653:2801   */\n              pop\n              pop\n              pop\n              jump\t// out\n                /* \"#utility.yul\":2807:3232   */\n            tag_106:\n                /* \"#utility.yul\":2885:2890   */\n              0x00\n                /* \"#utility.yul\":2910:2976   */\n              tag_165\n                /* \"#utility.yul\":2926:2975   */\n              tag_166\n                /* \"#utility.yul\":2968:2974   */\n              dup5\n                /* \"#utility.yul\":2926:2975   */\n              tag_104\n              jump\t// in\n            tag_166:\n                /* \"#utility.yul\":2910:2976   */\n              tag_103\n              jump\t// in\n            tag_165:\n                /* \"#utility.yul\":2901:2976   */\n              swap1\n              pop\n                /* \"#utility.yul\":2999:3005   */\n              dup3\n                /* \"#utility.yul\":2992:2997   */\n              dup2\n                /* \"#utility.yul\":2985:3006   */\n              mstore\n                /* \"#utility.yul\":3037:3041   */\n              0x20\n                /* \"#utility.yul\":3030:3035   */\n              dup2\n                /* \"#utility.yul\":3026:3042   */\n              add\n                /* \"#utility.yul\":3075:3078   */\n              dup5\n                /* \"#utility.yul\":3066:3072   */\n              dup5\n                /* \"#utility.yul\":3061:3064   */\n              dup5\n                /* \"#utility.yul\":3057:3073   */\n              add\n                /* \"#utility.yul\":3054:3079   */\n              gt\n                /* \"#utility.yul\":3051:3163   */\n              iszero\n              tag_167\n              jumpi\n                /* \"#utility.yul\":3082:3161   */\n              tag_168\n              tag_99\n              jump\t// in\n            tag_168:\n                /* \"#utility.yul\":3051:3163   */\n            tag_167:\n                /* \"#utility.yul\":3172:3226   */\n              tag_169\n                /* \"#utility.yul\":3219:3225   */\n              dup5\n                /* \"#utility.yul\":3214:3217   */\n              dup3\n                /* \"#utility.yul\":3209:3212   */\n              dup6\n                /* \"#utility.yul\":3172:3226   */\n              tag_105\n              jump\t// in\n            tag_169:\n                /* \"#utility.yul\":2891:3232   */\n              pop\n                /* \"#utility.yul\":2807:3232   */\n              swap4\n              swap3\n              pop\n              pop\n              pop\n              jump\t// out\n                /* \"#utility.yul\":3252:3592   */\n            tag_107:\n                /* \"#utility.yul\":3308:3313   */\n              0x00\n                /* \"#utility.yul\":3357:3360   */\n              dup3\n                /* \"#utility.yul\":3350:3354   */\n              0x1f\n                /* \"#utility.yul\":3342:3348   */\n              dup4\n                /* \"#utility.yul\":3338:3355   */\n              add\n                /* \"#utility.yul\":3334:3361   */\n              slt\n                /* \"#utility.yul\":3324:3446   */\n              tag_171\n              jumpi\n                /* \"#utility.yul\":3365:3444   */\n              tag_172\n              tag_98\n              jump\t// in\n            tag_172:\n                /* \"#utility.yul\":3324:3446   */\n            tag_171:\n                /* \"#utility.yul\":3482:3488   */\n              dup2\n                /* \"#utility.yul\":3469:3489   */\n              calldataload\n                /* \"#utility.yul\":3507:3586   */\n              tag_173\n                /* \"#utility.yul\":3582:3585   */\n              dup5\n                /* \"#utility.yul\":3574:3580   */\n              dup3\n                /* \"#utility.yul\":3567:3571   */\n              0x20\n                /* \"#utility.yul\":3559:3565   */\n              dup7\n                /* \"#utility.yul\":3555:3572   */\n              add\n                /* \"#utility.yul\":3507:3586   */\n              tag_106\n              jump\t// in\n            tag_173:\n                /* \"#utility.yul\":3498:3586   */\n              swap2\n              pop\n                /* \"#utility.yul\":3314:3592   */\n              pop\n                /* \"#utility.yul\":3252:3592   */\n              swap3\n              swap2\n              pop\n              pop\n              jump\t// out\n                /* \"#utility.yul\":3598:4252   */\n            tag_24:\n                /* \"#utility.yul\":3676:3682   */\n              0x00\n                /* \"#utility.yul\":3684:3690   */\n              0x00\n                /* \"#utility.yul\":3733:3735   */\n              0x40\n                /* \"#utility.yul\":3721:3730   */\n              dup4\n                /* \"#utility.yul\":3712:3719   */\n              dup6\n                /* \"#utility.yul\":3708:3731   */\n              sub\n                /* \"#utility.yul\":3704:3736   */\n              slt\n                /* \"#utility.yul\":3701:3820   */\n              iszero\n              tag_175\n              jumpi\n                /* \"#utility.yul\":3739:3818   */\n              tag_176\n              tag_92\n              jump\t// in\n            tag_176:\n                /* \"#utility.yul\":3701:3820   */\n            tag_175:\n                /* \"#utility.yul\":3887:3888   */\n              0x00\n                /* \"#utility.yul\":3876:3885   */\n              dup4\n                /* \"#utility.yul\":3872:3889   */\n              add\n                /* \"#utility.yul\":3859:3890   */\n              calldataload\n                /* \"#utility.yul\":3917:3935   */\n              0xffffffffffffffff\n                /* \"#utility.yul\":3909:3915   */\n              dup2\n                /* \"#utility.yul\":3906:3936   */\n              gt\n                /* \"#utility.yul\":3903:4020   */\n              iszero\n              tag_177\n              jumpi\n                /* \"#utility.yul\":3939:4018   */\n              tag_178\n              tag_93\n              jump\t// in\n            tag_178:\n                /* \"#utility.yul\":3903:4020   */\n            tag_177:\n                /* \"#utility.yul\":4044:4107   */\n              tag_179\n                /* \"#utility.yul\":4099:4106   */\n              dup6\n                /* \"#utility.yul\":4090:4096   */\n              dup3\n                /* \"#utility.yul\":4079:4088   */\n              dup7\n                /* \"#utility.yul\":4075:4097   */\n              add\n                /* \"#utility.yul\":4044:4107   */\n              tag_107\n              jump\t// in\n            tag_179:\n                /* \"#utility.yul\":4034:4107   */\n              swap3\n              pop\n                /* \"#utility.yul\":3830:4117   */\n              pop\n                /* \"#utility.yul\":4156:4158   */\n              0x20\n                /* \"#utility.yul\":4182:4235   */\n              tag_180\n                /* \"#utility.yul\":4227:4234   */\n              dup6\n                /* \"#utility.yul\":4218:4224   */\n              dup3\n                /* \"#utility.yul\":4207:4216   */\n              dup7\n                /* \"#utility.yul\":4203:4225   */\n              add\n                /* \"#utility.yul\":4182:4235   */\n              tag_96\n              jump\t// in\n            tag_180:\n                /* \"#utility.yul\":4172:4235   */\n              swap2\n              pop\n                /* \"#utility.yul\":4127:4245   */\n              pop\n                /* \"#utility.yul\":3598:4252   */\n              swap3\n              pop\n              swap3\n              swap1\n              pop\n              jump\t// out\n                /* \"#utility.yul\":4258:4767   */\n            tag_28:\n                /* \"#utility.yul\":4327:4333   */\n              0x00\n                /* \"#utility.yul\":4376:4378   */\n              0x20\n                /* \"#utility.yul\":4364:4373   */\n              dup3\n                /* \"#utility.yul\":4355:4362   */\n              dup5\n                /* \"#utility.yul\":4351:4374   */\n              sub\n                /* \"#utility.yul\":4347:4379   */\n              slt\n                /* \"#utility.yul\":4344:4463   */\n              iszero\n              tag_182\n              jumpi\n                /* \"#utility.yul\":4382:4461   */\n              tag_183\n              tag_92\n              jump\t// in\n            tag_183:\n                /* \"#utility.yul\":4344:4463   */\n            tag_182:\n                /* \"#utility.yul\":4530:4531   */\n              0x00\n                /* \"#utility.yul\":4519:4528   */\n              dup3\n                /* \"#utility.yul\":4515:4532   */\n              add\n                /* \"#utility.yul\":4502:4533   */\n              calldataload\n                /* \"#utility.yul\":4560:4578   */\n              0xffffffffffffffff\n                /* \"#utility.yul\":4552:4558   */\n              dup2\n                /* \"#utility.yul\":4549:4579   */\n              gt\n                /* \"#utility.yul\":4546:4663   */\n              iszero\n              tag_184\n              jumpi\n                /* \"#utility.yul\":4582:4661   */\n              tag_185\n              tag_93\n              jump\t// in\n            tag_185:\n                /* \"#utility.yul\":4546:4663   */\n            tag_184:\n                /* \"#utility.yul\":4687:4750   */\n              tag_186\n                /* \"#utility.yul\":4742:4749   */\n              dup5\n                /* \"#utility.yul\":4733:4739   */\n              dup3\n                /* \"#utility.yul\":4722:4731   */\n              dup6\n                /* \"#utility.yul\":4718:4740   */\n              add\n                /* \"#utility.yul\":4687:4750   */\n              tag_107\n              jump\t// in\n            tag_186:\n                /* \"#utility.yul\":4677:4750   */\n              swap2\n              pop\n                /* \"#utility.yul\":4473:4760   */\n              pop\n                /* \"#utility.yul\":4258:4767   */\n              swap3\n              swap2\n              pop\n              pop\n              jump\t// out\n                /* \"#utility.yul\":4773:4872   */\n            tag_108:\n                /* \"#utility.yul\":4825:4831   */\n              0x00\n                /* \"#utility.yul\":4859:4864   */\n              dup2\n                /* \"#utility.yul\":4853:4865   */\n              mload\n                /* \"#utility.yul\":4843:4865   */\n              swap1\n              pop\n                /* \"#utility.yul\":4773:4872   */\n              swap2\n              swap1\n              pop\n              jump\t// out\n                /* \"#utility.yul\":4878:5047   */\n            tag_109:\n                /* \"#utility.yul\":4962:4973   */\n              0x00\n                /* \"#utility.yul\":4996:5002   */\n              dup3\n                /* \"#utility.yul\":4991:4994   */\n              dup3\n                /* \"#utility.yul\":4984:5003   */\n              mstore\n                /* \"#utility.yul\":5036:5040   */\n              0x20\n                /* \"#utility.yul\":5031:5034   */\n              dup3\n                /* \"#utility.yul\":5027:5041   */\n              add\n                /* \"#utility.yul\":5012:5041   */\n              swap1\n              pop\n                /* \"#utility.yul\":4878:5047   */\n              swap3\n              swap2\n              pop\n              pop\n              jump\t// out\n                /* \"#utility.yul\":5053:5192   */\n            tag_110:\n                /* \"#utility.yul\":5142:5148   */\n              dup3\n                /* \"#utility.yul\":5137:5140   */\n              dup2\n                /* \"#utility.yul\":5132:5135   */\n              dup4\n                /* \"#utility.yul\":5126:5149   */\n              mcopy\n                /* \"#utility.yul\":5183:5184   */\n              0x00\n                /* \"#utility.yul\":5174:5180   */\n              dup4\n                /* \"#utility.yul\":5169:5172   */\n              dup4\n                /* \"#utility.yul\":5165:5181   */\n              add\n                /* \"#utility.yul\":5158:5185   */\n              mstore\n                /* \"#utility.yul\":5053:5192   */\n              pop\n              pop\n              pop\n              jump\t// out\n                /* \"#utility.yul\":5198:5575   */\n            tag_111:\n                /* \"#utility.yul\":5286:5289   */\n              0x00\n                /* \"#utility.yul\":5314:5353   */\n              tag_191\n                /* \"#utility.yul\":5347:5352   */\n              dup3\n                /* \"#utility.yul\":5314:5353   */\n              tag_108\n              jump\t// in\n            tag_191:\n                /* \"#utility.yul\":5369:5440   */\n              tag_192\n                /* \"#utility.yul\":5433:5439   */\n              dup2\n                /* \"#utility.yul\":5428:5431   */\n              dup6\n                /* \"#utility.yul\":5369:5440   */\n              tag_109\n              jump\t// in\n            tag_192:\n                /* \"#utility.yul\":5362:5440   */\n              swap4\n              pop\n                /* \"#utility.yul\":5449:5514   */\n              tag_193\n                /* \"#utility.yul\":5507:5513   */\n              dup2\n                /* \"#utility.yul\":5502:5505   */\n              dup6\n                /* \"#utility.yul\":5495:5499   */\n              0x20\n                /* \"#utility.yul\":5488:5493   */\n              dup7\n                /* \"#utility.yul\":5484:5500   */\n              add\n                /* \"#utility.yul\":5449:5514   */\n              tag_110\n              jump\t// in\n            tag_193:\n                /* \"#utility.yul\":5539:5568   */\n              tag_194\n                /* \"#utility.yul\":5561:5567   */\n              dup2\n                /* \"#utility.yul\":5539:5568   */\n              tag_100\n              jump\t// in\n            tag_194:\n                /* \"#utility.yul\":5534:5537   */\n              dup5\n                /* \"#utility.yul\":5530:5569   */\n              add\n                /* \"#utility.yul\":5523:5569   */\n              swap2\n              pop\n                /* \"#utility.yul\":5290:5575   */\n              pop\n                /* \"#utility.yul\":5198:5575   */\n              swap3\n              swap2\n              pop\n              pop\n              jump\t// out\n                /* \"#utility.yul\":5581:6004   */\n            tag_51:\n                /* \"#utility.yul\":5722:5726   */\n              0x00\n                /* \"#utility.yul\":5760:5762   */\n              0x40\n                /* \"#utility.yul\":5749:5758   */\n              dup3\n                /* \"#utility.yul\":5745:5763   */\n              add\n                /* \"#utility.yul\":5737:5763   */\n              swap1\n              pop\n                /* \"#utility.yul\":5809:5818   */\n              dup2\n                /* \"#utility.yul\":5803:5807   */\n              dup2\n                /* \"#utility.yul\":5799:5819   */\n              sub\n                /* \"#utility.yul\":5795:5796   */\n              0x00\n                /* \"#utility.yul\":5784:5793   */\n              dup4\n                /* \"#utility.yul\":5780:5797   */\n              add\n                /* \"#utility.yul\":5773:5820   */\n              mstore\n                /* \"#utility.yul\":5837:5915   */\n              tag_196\n                /* \"#utility.yul\":5910:5914   */\n              dup2\n                /* \"#utility.yul\":5901:5907   */\n              dup6\n                /* \"#utility.yul\":5837:5915   */\n              tag_111\n              jump\t// in\n            tag_196:\n                /* \"#utility.yul\":5829:5915   */\n              swap1\n              pop\n                /* \"#utility.yul\":5925:5997   */\n              tag_197\n                /* \"#utility.yul\":5993:5995   */\n              0x20\n                /* \"#utility.yul\":5982:5991   */\n              dup4\n                /* \"#utility.yul\":5978:5996   */\n              add\n                /* \"#utility.yul\":5969:5975   */\n              dup5\n                /* \"#utility.yul\":5925:5997   */\n              tag_97\n              jump\t// in\n            tag_197:\n                /* \"#utility.yul\":5581:6004   */\n              swap4\n              swap3\n              pop\n              pop\n              pop\n              jump\t// out\n                /* \"#utility.yul\":6010:6484   */\n            tag_54:\n                /* \"#utility.yul\":6078:6084   */\n              0x00\n                /* \"#utility.yul\":6086:6092   */\n              0x00\n                /* \"#utility.yul\":6135:6137   */\n              0x40\n                /* \"#utility.yul\":6123:6132   */\n              dup4\n                /* \"#utility.yul\":6114:6121   */\n              dup6\n                /* \"#utility.yul\":6110:6133   */\n              sub\n                /* \"#utility.yul\":6106:6138   */\n              slt\n                /* \"#utility.yul\":6103:6222   */\n              iszero\n              tag_199\n              jumpi\n                /* \"#utility.yul\":6141:6220   */\n              tag_200\n              tag_92\n              jump\t// in\n            tag_200:\n                /* \"#utility.yul\":6103:6222   */\n            tag_199:\n                /* \"#utility.yul\":6261:6262   */\n              0x00\n                /* \"#utility.yul\":6286:6339   */\n              tag_201\n                /* \"#utility.yul\":6331:6338   */\n              dup6\n                /* \"#utility.yul\":6322:6328   */\n              dup3\n                /* \"#utility.yul\":6311:6320   */\n              dup7\n                /* \"#utility.yul\":6307:6329   */\n              add\n                /* \"#utility.yul\":6286:6339   */\n              tag_96\n              jump\t// in\n            tag_201:\n                /* \"#utility.yul\":6276:6339   */\n              swap3\n              pop\n                /* \"#utility.yul\":6232:6349   */\n              pop\n                /* \"#utility.yul\":6388:6390   */\n              0x20\n                /* \"#utility.yul\":6414:6467   */\n              tag_202\n                /* \"#utility.yul\":6459:6466   */\n              dup6\n                /* \"#utility.yul\":6450:6456   */\n              dup3\n                /* \"#utility.yul\":6439:6448   */\n              dup7\n                /* \"#utility.yul\":6435:6457   */\n              add\n                /* \"#utility.yul\":6414:6467   */\n              tag_96\n              jump\t// in\n            tag_202:\n                /* \"#utility.yul\":6404:6467   */\n              swap2\n              pop\n                /* \"#utility.yul\":6359:6477   */\n              pop\n                /* \"#utility.yul\":6010:6484   */\n              swap3\n              pop\n              swap3\n              swap1\n              pop\n              jump\t// out\n                /* \"#utility.yul\":6490:6638   */\n            tag_112:\n                /* \"#utility.yul\":6592:6603   */\n              0x00\n                /* \"#utility.yul\":6629:6632   */\n              dup2\n                /* \"#utility.yul\":6614:6632   */\n              swap1\n              pop\n                /* \"#utility.yul\":6490:6638   */\n              swap3\n              swap2\n              pop\n              pop\n              jump\t// out\n                /* \"#utility.yul\":6644:7034   */\n            tag_113:\n                /* \"#utility.yul\":6750:6753   */\n              0x00\n                /* \"#utility.yul\":6778:6817   */\n              tag_205\n                /* \"#utility.yul\":6811:6816   */\n              dup3\n                /* \"#utility.yul\":6778:6817   */\n              tag_108\n              jump\t// in\n            tag_205:\n                /* \"#utility.yul\":6833:6922   */\n              tag_206\n                /* \"#utility.yul\":6915:6921   */\n              dup2\n                /* \"#utility.yul\":6910:6913   */\n              dup6\n                /* \"#utility.yul\":6833:6922   */\n              tag_112\n              jump\t// in\n            tag_206:\n                /* \"#utility.yul\":6826:6922   */\n              swap4\n              pop\n                /* \"#utility.yul\":6931:6996   */\n              tag_207\n                /* \"#utility.yul\":6989:6995   */\n              dup2\n                /* \"#utility.yul\":6984:6987   */\n              dup6\n                /* \"#utility.yul\":6977:6981   */\n              0x20\n                /* \"#utility.yul\":6970:6975   */\n              dup7\n                /* \"#utility.yul\":6966:6982   */\n              add\n                /* \"#utility.yul\":6931:6996   */\n              tag_110\n              jump\t// in\n            tag_207:\n                /* \"#utility.yul\":7021:7027   */\n              dup1\n                /* \"#utility.yul\":7016:7019   */\n              dup5\n                /* \"#utility.yul\":7012:7028   */\n              add\n                /* \"#utility.yul\":7005:7028   */\n              swap2\n              pop\n                /* \"#utility.yul\":6754:7034   */\n              pop\n                /* \"#utility.yul\":6644:7034   */\n              swap3\n              swap2\n              pop\n              pop\n              jump\t// out\n                /* \"#utility.yul\":7040:7315   */\n            tag_66:\n                /* \"#utility.yul\":7172:7175   */\n              0x00\n                /* \"#utility.yul\":7194:7289   */\n              tag_209\n                /* \"#utility.yul\":7285:7288   */\n              dup3\n                /* \"#utility.yul\":7276:7282   */\n              dup5\n                /* \"#utility.yul\":7194:7289   */\n              tag_113\n              jump\t// in\n            tag_209:\n                /* \"#utility.yul\":7187:7289   */\n              swap2\n              pop\n                /* \"#utility.yul\":7306:7309   */\n              dup2\n                /* \"#utility.yul\":7299:7309   */\n              swap1\n              pop\n                /* \"#utility.yul\":7040:7315   */\n              swap3\n              swap2\n              pop\n              pop\n              jump\t// out\n                /* \"#utility.yul\":7321:7501   */\n            tag_114:\n                /* \"#utility.yul\":7369:7446   */\n              0x4e487b7100000000000000000000000000000000000000000000000000000000\n                /* \"#utility.yul\":7366:7367   */\n              0x00\n                /* \"#utility.yul\":7359:7447   */\n              mstore\n                /* \"#utility.yul\":7466:7470   */\n              0x22\n                /* \"#utility.yul\":7463:7464   */\n              0x04\n                /* \"#utility.yul\":7456:7471   */\n              mstore\n                /* \"#utility.yul\":7490:7494   */\n              0x24\n                /* \"#utility.yul\":7487:7488   */\n              0x00\n                /* \"#utility.yul\":7480:7495   */\n              revert\n                /* \"#utility.yul\":7507:7827   */\n            tag_78:\n                /* \"#utility.yul\":7551:7557   */\n              0x00\n                /* \"#utility.yul\":7588:7589   */\n              0x02\n                /* \"#utility.yul\":7582:7586   */\n              dup3\n                /* \"#utility.yul\":7578:7590   */\n              div\n                /* \"#utility.yul\":7568:7590   */\n              swap1\n              pop\n                /* \"#utility.yul\":7635:7636   */\n              0x01\n                /* \"#utility.yul\":7629:7633   */\n              dup3\n                /* \"#utility.yul\":7625:7637   */\n              and\n                /* \"#utility.yul\":7656:7674   */\n              dup1\n                /* \"#utility.yul\":7646:7727   */\n              tag_212\n              jumpi\n                /* \"#utility.yul\":7712:7716   */\n              0x7f\n                /* \"#utility.yul\":7704:7710   */\n              dup3\n                /* \"#utility.yul\":7700:7717   */\n              and\n                /* \"#utility.yul\":7690:7717   */\n              swap2\n              pop\n                /* \"#utility.yul\":7646:7727   */\n            tag_212:\n                /* \"#utility.yul\":7774:7776   */\n              0x20\n                /* \"#utility.yul\":7766:7772   */\n              dup3\n                /* \"#utility.yul\":7763:7777   */\n              lt\n                /* \"#utility.yul\":7743:7761   */\n              dup2\n                /* \"#utility.yul\":7740:7778   */\n              sub\n                /* \"#utility.yul\":7737:7821   */\n              tag_213\n              jumpi\n                /* \"#utility.yul\":7793:7811   */\n              tag_214\n              tag_114\n              jump\t// in\n            tag_214:\n                /* \"#utility.yul\":7737:7821   */\n            tag_213:\n                /* \"#utility.yul\":7558:7827   */\n              pop\n                /* \"#utility.yul\":7507:7827   */\n              swap2\n              swap1\n              pop\n              jump\t// out\n                /* \"#utility.yul\":7833:7974   */\n            tag_115:\n                /* \"#utility.yul\":7882:7886   */\n              0x00\n                /* \"#utility.yul\":7905:7908   */\n              dup2\n                /* \"#utility.yul\":7897:7908   */\n              swap1\n              pop\n                /* \"#utility.yul\":7928:7931   */\n              dup2\n                /* \"#utility.yul\":7925:7926   */\n              0x00\n                /* \"#utility.yul\":7918:7932   */\n              mstore\n                /* \"#utility.yul\":7962:7966   */\n              0x20\n                /* \"#utility.yul\":7959:7960   */\n              0x00\n                /* \"#utility.yul\":7949:7967   */\n              keccak256\n                /* \"#utility.yul\":7941:7967   */\n              swap1\n              pop\n                /* \"#utility.yul\":7833:7974   */\n              swap2\n              swap1\n              pop\n              jump\t// out\n                /* \"#utility.yul\":7980:8073   */\n            tag_116:\n                /* \"#utility.yul\":8017:8023   */\n              0x00\n                /* \"#utility.yul\":8064:8066   */\n              0x20\n                /* \"#utility.yul\":8059:8061   */\n              0x1f\n                /* \"#utility.yul\":8052:8057   */\n              dup4\n                /* \"#utility.yul\":8048:8062   */\n              add\n                /* \"#utility.yul\":8044:8067   */\n              div\n                /* \"#utility.yul\":8034:8067   */\n              swap1\n              pop\n                /* \"#utility.yul\":7980:8073   */\n              swap2\n              swap1\n              pop\n              jump\t// out\n                /* \"#utility.yul\":8079:8186   */\n            tag_117:\n                /* \"#utility.yul\":8123:8131   */\n              0x00\n                /* \"#utility.yul\":8173:8178   */\n              dup3\n                /* \"#utility.yul\":8167:8171   */\n              dup3\n                /* \"#utility.yul\":8163:8179   */\n              shl\n                /* \"#utility.yul\":8142:8179   */\n              swap1\n              pop\n                /* \"#utility.yul\":8079:8186   */\n              swap3\n              swap2\n              pop\n              pop\n              jump\t// out\n                /* \"#utility.yul\":8192:8585   */\n            tag_118:\n                /* \"#utility.yul\":8261:8267   */\n              0x00\n                /* \"#utility.yul\":8311:8312   */\n              0x08\n                /* \"#utility.yul\":8299:8309   */\n              dup4\n                /* \"#utility.yul\":8295:8313   */\n              mul\n                /* \"#utility.yul\":8334:8431   */\n              tag_219\n                /* \"#utility.yul\":8364:8430   */\n              0xffffffffffffffffffffffffffffffffffffffffffffffffffffffffffffffff\n                /* \"#utility.yul\":8353:8362   */\n              dup3\n                /* \"#utility.yul\":8334:8431   */\n              tag_117\n              jump\t// in\n            tag_219:\n                /* \"#utility.yul\":8452:8491   */\n              tag_220\n                /* \"#utility.yul\":8482:8490   */\n              dup7\n                /* \"#utility.yul\":8471:8480   */\n              dup4\n                /* \"#utility.yul\":8452:8491   */\n              tag_117\n              jump\t// in\n            tag_220:\n                /* \"#utility.yul\":8440:8491   */\n              swap6\n              pop\n                /* \"#utility.yul\":8524:8528   */\n              dup1\n                /* \"#utility.yul\":8520:8529   */\n              not\n                /* \"#utility.yul\":8513:8518   */\n              dup5\n                /* \"#utility.yul\":8509:8530   */\n              and\n                /* \"#utility.yul\":8500:8530   */\n              swap4\n              pop\n                /* \"#utility.yul\":8573:8577   */\n              dup1\n                /* \"#utility.yul\":8563:8571   */\n              dup7\n                /* \"#utility.yul\":8559:8578   */\n              and\n                /* \"#utility.yul\":8552:8557   */\n              dup5\n                /* \"#utility.yul\":8549:8579   */\n              or\n                /* \"#utility.yul\":8539:8579   */\n              swap3\n              pop\n                /* \"#utility.yul\":8268:8585   */\n              pop\n              pop\n                /* \"#utility.yul\":8192:8585   */\n              swap4\n              swap3\n              pop\n              pop\n              pop\n              jump\t// out\n                /* \"#utility.yul\":8591:8651   */\n            tag_119:\n                /* \"#utility.yul\":8619:8622   */\n              0x00\n                /* \"#utility.yul\":8640:8645   */\n              dup2\n                /* \"#utility.yul\":8633:8645   */\n              swap1\n              pop\n                /* \"#utility.yul\":8591:8651   */\n              swap2\n              swap1\n              pop\n              jump\t// out\n                /* \"#utility.yul\":8657:8799   */\n            tag_120:\n                /* \"#utility.yul\":8707:8716   */\n              0x00\n                /* \"#utility.yul\":8740:8793   */\n              tag_223\n                /* \"#utility.yul\":8758:8792   */\n              tag_224\n                /* \"#utility.yul\":8767:8791   */\n              tag_225\n                /* \"#utility.yul\":8785:8790   */\n              dup5\n                /* \"#utility.yul\":8767:8791   */\n              tag_94\n              jump\t// in\n            tag_225:\n                /* \"#utility.yul\":8758:8792   */\n              tag_119\n              jump\t// in\n            tag_224:\n                /* \"#utility.yul\":8740:8793   */\n              tag_94\n              jump\t// in\n            tag_223:\n                /* \"#utility.yul\":8727:8793   */\n              swap1\n              pop\n                /* \"#utility.yul\":8657:8799   */\n              swap2\n              swap1\n              pop\n              jump\t// out\n                /* \"#utility.yul\":8805:8880   */\n            tag_121:\n                /* \"#utility.yul\":8848:8851   */\n              0x00\n                /* \"#utility.yul\":8869:8874   */\n              dup2\n                /* \"#utility.yul\":8862:8874   */\n              swap1\n              pop\n                /* \"#utility.yul\":8805:8880   */\n              swap2\n              swap1\n              pop\n              jump\t// out\n                /* \"#utility.yul\":8886:9155   */\n            tag_122:\n                /* \"#utility.yul\":8996:9035   */\n              tag_228\n                /* \"#utility.yul\":9027:9034   */\n              dup4\n                /* \"#utility.yul\":8996:9035   */\n              tag_120\n              jump\t// in\n            tag_228:\n                /* \"#utility.yul\":9057:9148   */\n              tag_229\n                /* \"#utility.yul\":9106:9147   */\n              tag_230\n                /* \"#utility.yul\":9130:9146   */\n              dup3\n                /* \"#utility.yul\":9106:9147   */\n              tag_121\n              jump\t// in\n            tag_230:\n                /* \"#utility.yul\":9098:9104   */\n              dup5\n                /* \"#utility.yul\":9091:9095   */\n              dup5\n                /* \"#utility.yul\":9085:9096   */\n              sload\n                /* \"#utility.yul\":9057:9148   */\n              tag_118\n              jump\t// in\n            tag_229:\n                /* \"#utility.yul\":9051:9055   */\n              dup3\n                /* \"#utility.yul\":9044:9149   */\n              sstore\n                /* \"#utility.yul\":8962:9155   */\n              pop\n                /* \"#utility.yul\":8886:9155   */\n              pop\n              pop\n              pop\n              jump\t// out\n                /* \"#utility.yul\":9161:9234   */\n            tag_123:\n                /* \"#utility.yul\":9206:9209   */\n              0x00\n                /* \"#utility.yul\":9227:9228   */\n              0x00\n                /* \"#utility.yul\":9220:9228   */\n              swap1\n              pop\n                /* \"#utility.yul\":9161:9234   */\n              swap1\n              jump\t// out\n                /* \"#utility.yul\":9240:9429   */\n            tag_124:\n                /* \"#utility.yul\":9317:9349   */\n              tag_233\n              tag_123\n              jump\t// in\n            tag_233:\n                /* \"#utility.yul\":9358:9423   */\n              tag_234\n                /* \"#utility.yul\":9416:9422   */\n              dup2\n                /* \"#utility.yul\":9408:9414   */\n              dup5\n                /* \"#utility.yul\":9402:9406   */\n              dup5\n                /* \"#utility.yul\":9358:9423   */\n              tag_122\n              jump\t// in\n            tag_234:\n                /* \"#utility.yul\":9293:9429   */\n              pop\n                /* \"#utility.yul\":9240:9429   */\n              pop\n              pop\n              jump\t// out\n                /* \"#utility.yul\":9435:9621   */\n            tag_125:\n                /* \"#utility.yul\":9495:9615   */\n            tag_236:\n                /* \"#utility.yul\":9512:9515   */\n              dup2\n                /* \"#utility.yul\":9505:9510   */\n              dup2\n                /* \"#utility.yul\":9502:9516   */\n              lt\n                /* \"#utility.yul\":9495:9615   */\n              iszero\n              tag_238\n              jumpi\n                /* \"#utility.yul\":9566:9605   */\n              tag_239\n                /* \"#utility.yul\":9603:9604   */\n              0x00\n                /* \"#utility.yul\":9596:9601   */\n              dup3\n                /* \"#utility.yul\":9566:9605   */\n              tag_124\n              jump\t// in\n            tag_239:\n                /* \"#utility.yul\":9539:9540   */\n              0x01\n                /* \"#utility.yul\":9532:9537   */\n              dup2\n                /* \"#utility.yul\":9528:9541   */\n              add\n                /* \"#utility.yul\":9519:9541   */\n              swap1\n              pop\n                /* \"#utility.yul\":9495:9615   */\n              jump(tag_236)\n            tag_238:\n                /* \"#utility.yul\":9435:9621   */\n              pop\n              pop\n              jump\t// out\n                /* \"#utility.yul\":9627:10170   */\n            tag_126:\n                /* \"#utility.yul\":9728:9730   */\n              0x1f\n                /* \"#utility.yul\":9723:9726   */\n              dup3\n                /* \"#utility.yul\":9720:9731   */\n              gt\n                /* \"#utility.yul\":9717:10163   */\n              iszero\n              tag_241\n              jumpi\n                /* \"#utility.yul\":9762:9800   */\n              tag_242\n                /* \"#utility.yul\":9794:9799   */\n              dup2\n                /* \"#utility.yul\":9762:9800   */\n              tag_115\n              jump\t// in\n            tag_242:\n                /* \"#utility.yul\":9846:9875   */\n              tag_243\n                /* \"#utility.yul\":9864:9874   */\n              dup5\n                /* \"#utility.yul\":9846:9875   */\n              tag_116\n              jump\t// in\n            tag_243:\n                /* \"#utility.yul\":9836:9844   */\n              dup2\n                /* \"#utility.yul\":9832:9876   */\n              add\n                /* \"#utility.yul\":10029:10031   */\n              0x20\n                /* \"#utility.yul\":10017:10027   */\n              dup6\n                /* \"#utility.yul\":10014:10032   */\n              lt\n                /* \"#utility.yul\":10011:10060   */\n              iszero\n              tag_244\n              jumpi\n                /* \"#utility.yul\":10050:10058   */\n              dup2\n                /* \"#utility.yul\":10035:10058   */\n              swap1\n              pop\n                /* \"#utility.yul\":10011:10060   */\n            tag_244:\n                /* \"#utility.yul\":10073:10153   */\n              tag_245\n                /* \"#utility.yul\":10129:10151   */\n              tag_246\n                /* \"#utility.yul\":10147:10150   */\n              dup6\n                /* \"#utility.yul\":10129:10151   */\n              tag_116\n              jump\t// in\n            tag_246:\n                /* \"#utility.yul\":10119:10127   */\n              dup4\n                /* \"#utility.yul\":10115:10152   */\n              add\n                /* \"#utility.yul\":10102:10113   */\n              dup3\n                /* \"#utility.yul\":10073:10153   */\n              tag_125\n              jump\t// in\n            tag_245:\n                /* \"#utility.yul\":9732:10163   */\n              pop\n              pop\n                /* \"#utility.yul\":9717:10163   */\n            tag_241:\n                /* \"#utility.yul\":9627:10170   */\n              pop\n              pop\n              pop\n              jump\t// out\n                /* \"#utility.yul\":10176:10293   */\n            tag_127:\n                /* \"#utility.yul\":10230:10238   */\n              0x00\n                /* \"#utility.yul\":10280:10285   */\n              dup3\n                /* \"#utility.yul\":10274:10278   */\n              dup3\n                /* \"#utility.yul\":10270:10286   */\n              shr\n                /* \"#utility.yul\":10249:10286   */\n              swap1\n              pop\n                /* \"#utility.yul\":10176:10293   */\n              swap3\n              swap2\n              pop\n              pop\n              jump\t// out\n                /* \"#utility.yul\":10299:10468   */\n            tag_128:\n                /* \"#utility.yul\":10343:10349   */\n              0x00\n                /* \"#utility.yul\":10376:10427   */\n              tag_249\n                /* \"#utility.yul\":10424:10425   */\n              0x00\n                /* \"#utility.yul\":10420:10426   */\n              not\n                /* \"#utility.yul\":10412:10417   */\n              dup5\n                /* \"#utility.yul\":10409:10410   */\n              0x08\n                /* \"#utility.yul\":10405:10418   */\n              mul\n                /* \"#utility.yul\":10376:10427   */\n              tag_127\n              jump\t// in\n            tag_249:\n                /* \"#utility.yul\":10372:10428   */\n              not\n                /* \"#utility.yul\":10457:10461   */\n              dup1\n                /* \"#utility.yul\":10451:10455   */\n              dup4\n                /* \"#utility.yul\":10447:10462   */\n              and\n                /* \"#utility.yul\":10437:10462   */\n              swap2\n              pop\n                /* \"#utility.yul\":10350:10468   */\n              pop\n                /* \"#utility.yul\":10299:10468   */\n              swap3\n              swap2\n              pop\n              pop\n              jump\t// out\n                /* \"#utility.yul\":10473:10768   */\n            tag_129:\n                /* \"#utility.yul\":10549:10553   */\n              0x00\n                /* \"#utility.yul\":10695:10724   */\n              tag_251\n                /* \"#utility.yul\":10720:10723   */\n              dup4\n                /* \"#utility.yul\":10714:10718   */\n              dup4\n                /* \"#utility.yul\":10695:10724   */\n              tag_128\n              jump\t// in\n            tag_251:\n                /* \"#utility.yul\":10687:10724   */\n              swap2\n              pop\n                /* \"#utility.yul\":10757:10760   */\n              dup3\n                /* \"#utility.yul\":10754:10755   */\n              0x02\n                /* \"#utility.yul\":10750:10761   */\n              mul\n                /* \"#utility.yul\":10744:10748   */\n              dup3\n                /* \"#utility.yul\":10741:10762   */\n              or\n                /* \"#utility.yul\":10733:10762   */\n              swap1\n              pop\n                /* \"#utility.yul\":10473:10768   */\n              swap3\n              swap2\n              pop\n              pop\n              jump\t// out\n                /* \"#utility.yul\":10773:12168   */\n            tag_74:\n                /* \"#utility.yul\":10890:10927   */\n              tag_253\n                /* \"#utility.yul\":10923:10926   */\n              dup3\n                /* \"#utility.yul\":10890:10927   */\n              tag_108\n              jump\t// in\n            tag_253:\n                /* \"#utility.yul\":10992:11010   */\n              0xffffffffffffffff\n                /* \"#utility.yul\":10984:10990   */\n              dup2\n                /* \"#utility.yul\":10981:11011   */\n              gt\n                /* \"#utility.yul\":10978:11034   */\n              iszero\n              tag_254\n              jumpi\n                /* \"#utility.yul\":11014:11032   */\n              tag_255\n              tag_101\n              jump\t// in\n            tag_255:\n                /* \"#utility.yul\":10978:11034   */\n            tag_254:\n                /* \"#utility.yul\":11058:11096   */\n              tag_256\n                /* \"#utility.yul\":11090:11094   */\n              dup3\n                /* \"#utility.yul\":11084:11095   */\n              sload\n                /* \"#utility.yul\":11058:11096   */\n              tag_78\n              jump\t// in\n            tag_256:\n                /* \"#utility.yul\":11143:11210   */\n              tag_257\n                /* \"#utility.yul\":11203:11209   */\n              dup3\n                /* \"#utility.yul\":11195:11201   */\n              dup3\n                /* \"#utility.yul\":11189:11193   */\n              dup6\n                /* \"#utility.yul\":11143:11210   */\n              tag_126\n              jump\t// in\n            tag_257:\n                /* \"#utility.yul\":11237:11238   */\n              0x00\n                /* \"#utility.yul\":11261:11265   */\n              0x20\n                /* \"#utility.yul\":11248:11265   */\n              swap1\n              pop\n                /* \"#utility.yul\":11293:11295   */\n              0x1f\n                /* \"#utility.yul\":11285:11291   */\n              dup4\n                /* \"#utility.yul\":11282:11296   */\n              gt\n                /* \"#utility.yul\":11310:11311   */\n              0x01\n                /* \"#utility.yul\":11305:11923   */\n              dup2\n              eq\n              tag_259\n              jumpi\n                /* \"#utility.yul\":11967:11968   */\n              0x00\n                /* \"#utility.yul\":11984:11990   */\n              dup5\n                /* \"#utility.yul\":11981:12058   */\n              iszero\n              tag_260\n              jumpi\n                /* \"#utility.yul\":12033:12042   */\n              dup3\n                /* \"#utility.yul\":12028:12031   */\n              dup8\n                /* \"#utility.yul\":12024:12043   */\n              add\n                /* \"#utility.yul\":12018:12044   */\n              mload\n                /* \"#utility.yul\":12009:12044   */\n              swap1\n              pop\n                /* \"#utility.yul\":11981:12058   */\n            tag_260:\n                /* \"#utility.yul\":12084:12151   */\n              tag_261\n                /* \"#utility.yul\":12144:12150   */\n              dup6\n                /* \"#utility.yul\":12137:12142   */\n              dup3\n                /* \"#utility.yul\":12084:12151   */\n              tag_129\n              jump\t// in\n            tag_261:\n                /* \"#utility.yul\":12078:12082   */\n              dup7\n                /* \"#utility.yul\":12071:12152   */\n              sstore\n                /* \"#utility.yul\":11940:12162   */\n              pop\n                /* \"#utility.yul\":11275:12162   */\n              jump(tag_258)\n                /* \"#utility.yul\":11305:11923   */\n            tag_259:\n                /* \"#utility.yul\":11357:11361   */\n              0x1f\n                /* \"#utility.yul\":11353:11362   */\n              not\n                /* \"#utility.yul\":11345:11351   */\n              dup5\n                /* \"#utility.yul\":11341:11363   */\n              and\n                /* \"#utility.yul\":11391:11428   */\n              tag_262\n                /* \"#utility.yul\":11423:11427   */\n              dup7\n                /* \"#utility.yul\":11391:11428   */\n              tag_115\n              jump\t// in\n            tag_262:\n                /* \"#utility.yul\":11450:11451   */\n              0x00\n                /* \"#utility.yul\":11464:11672   */\n            tag_263:\n                /* \"#utility.yul\":11478:11485   */\n              dup3\n                /* \"#utility.yul\":11475:11476   */\n              dup2\n                /* \"#utility.yul\":11472:11486   */\n              lt\n                /* \"#utility.yul\":11464:11672   */\n              iszero\n              tag_265\n              jumpi\n                /* \"#utility.yul\":11557:11566   */\n              dup5\n                /* \"#utility.yul\":11552:11555   */\n              dup10\n                /* \"#utility.yul\":11548:11567   */\n              add\n                /* \"#utility.yul\":11542:11568   */\n              mload\n                /* \"#utility.yul\":11534:11540   */\n              dup3\n                /* \"#utility.yul\":11527:11569   */\n              sstore\n                /* \"#utility.yul\":11608:11609   */\n              0x01\n                /* \"#utility.yul\":11600:11606   */\n              dup3\n                /* \"#utility.yul\":11596:11610   */\n              add\n                /* \"#utility.yul\":11586:11610   */\n              swap2\n              pop\n                /* \"#utility.yul\":11655:11657   */\n              0x20\n                /* \"#utility.yul\":11644:11653   */\n              dup6\n                /* \"#utility.yul\":11640:11658   */\n              add\n                /* \"#utility.yul\":11627:11658   */\n              swap5\n              pop\n                /* \"#utility.yul\":11501:11505   */\n              0x20\n                /* \"#utility.yul\":11498:11499   */\n              dup2\n                /* \"#utility.yul\":11494:11506   */\n              add\n                /* \"#utility.yul\":11489:11506   */\n              swap1\n              pop\n                /* \"#utility.yul\":11464:11672   */\n              jump(tag_263)\n            tag_265:\n                /* \"#utility.yul\":11700:11706   */\n              dup7\n                /* \"#utility.yul\":11691:11698   */\n              dup4\n                /* \"#utility.yul\":11688:11707   */\n              lt\n                /* \"#utility.yul\":11685:11864   */\n              iszero\n              tag_266\n              jumpi\n                /* \"#utility.yul\":11758:11767   */\n              dup5\n                /* \"#utility.yul\":11753:11756   */\n              dup10\n                /* \"#utility.yul\":11749:11768   */\n              add\n                /* \"#utility.yul\":11743:11769   */\n              mload\n                /* \"#utility.yul\":11801:11849   */\n              tag_267\n                /* \"#utility.yul\":11843:11847   */\n              0x1f\n                /* \"#utility.yul\":11835:11841   */\n              dup10\n                /* \"#utility.yul\":11831:11848   */\n              and\n                /* \"#utility.yul\":11820:11829   */\n              dup3\n                /* \"#utility.yul\":11801:11849   */\n              tag_128\n              jump\t// in\n            tag_267:\n                /* \"#utility.yul\":11793:11799   */\n              dup4\n                /* \"#utility.yul\":11786:11850   */\n              sstore\n                /* \"#utility.yul\":11708:11864   */\n              pop\n                /* \"#utility.yul\":11685:11864   */\n            tag_266:\n                /* \"#utility.yul\":11910:11911   */\n              0x01\n                /* \"#utility.yul\":11906:11907   */\n              0x02\n                /* \"#utility.yul\":11898:11904   */\n              dup9\n                /* \"#utility.yul\":11894:11908   */\n              mul\n                /* \"#utility.yul\":11890:11912   */\n              add\n                /* \"#utility.yul\":11884:11888   */\n              dup9\n                /* \"#utility.yul\":11877:11913   */\n              sstore\n                /* \"#utility.yul\":11312:11923   */\n              pop\n              pop\n              pop\n                /* \"#utility.yul\":11275:12162   */\n            tag_258:\n              pop\n                /* \"#utility.yul\":10865:12168   */\n              pop\n              pop\n              pop\n                /* \"#utility.yul\":10773:12168   */\n              pop\n              pop\n              jump\t// out\n                /* \"#utility.yul\":12174:12354   */\n            tag_86:\n                /* \"#utility.yul\":12222:12299   */\n              0x4e487b7100000000000000000000000000000000000000000000000000000000\n                /* \"#utility.yul\":12219:12220   */\n              0x00\n                /* \"#utility.yul\":12212:12300   */\n              mstore\n                /* \"#utility.yul\":12319:12323   */\n              0x32\n                /* \"#utility.yul\":12316:12317   */\n              0x04\n                /* \"#utility.yul\":12309:12324   */\n              mstore\n                /* \"#utility.yul\":12343:12347   */\n              0x24\n                /* \"#utility.yul\":12340:12341   */\n              0x00\n                /* \"#utility.yul\":12333:12348   */\n              revert\n\n            auxdata: 0xa26469706673582212203eb1d4145c2f99ba80a0d51212eb667ba8e4fde44d496921bc61c626eb404fb464736f6c634300081d0033\n        }\n    }\n\n    auxdata: 0xa26469706673582212200ce9a009f491112ed4e9497d8b11b4d3dfd8a4760397363c5d965aedf30c982f64736f6c634300081d0033\n}\n",
				"bytecode": {
					"linkReferences": {},
					"object": "6080604052348015600e575f5ffd5b506110358061001c5f395ff3fe608060405234801561000f575f5ffd5b506004361061004a575f3560e01c80631563700f1461004e57806340d66b3b1461006a578063a5772eba14610074578063b51c8444146100a4575b5f5ffd5b61006860048036038101906100639190610330565b6100d4565b005b610072610178565b005b61008e6004803603810190610089919061036e565b610203565b60405161009b9190610413565b60405180910390f35b6100be60048036038101906100b9919061036e565b61023d565b6040516100cb919061043b565b60405180910390f35b5f82815481106100e7576100e6610454565b5b905f5260205f20015f9054906101000a900473ffffffffffffffffffffffffffffffffffffffff1673ffffffffffffffffffffffffffffffffffffffff16636057361d826040518263ffffffff1660e01b8152600401610147919061043b565b5f604051808303815f87803b15801561015e575f5ffd5b505af1158015610170573d5f5f3e3d5ffd5b505050505050565b5f604051610185906102ec565b604051809103905ff08015801561019e573d5f5f3e3d5ffd5b5090505f81908060018154018082558091505060019003905f5260205f20015f9091909190916101000a81548173ffffffffffffffffffffffffffffffffffffffff021916908373ffffffffffffffffffffffffffffffffffffffff16021790555050565b5f8181548110610211575f80fd5b905f5260205f20015f915054906101000a900473ffffffffffffffffffffffffffffffffffffffff1681565b5f5f828154811061025157610250610454565b5b905f5260205f20015f9054906101000a900473ffffffffffffffffffffffffffffffffffffffff1673ffffffffffffffffffffffffffffffffffffffff1663f2c9ecd86040518163ffffffff1660e01b8152600401602060405180830381865afa1580156102c1573d5f5f3e3d5ffd5b505050506040513d601f19601f820116820180604052508101906102e59190610495565b9050919050565b610b3f806104c183390190565b5f5ffd5b5f819050919050565b61030f816102fd565b8114610319575f5ffd5b50565b5f8135905061032a81610306565b92915050565b5f5f60408385031215610346576103456102f9565b5b5f6103538582860161031c565b92505060206103648582860161031c565b9150509250929050565b5f60208284031215610383576103826102f9565b5b5f6103908482850161031c565b91505092915050565b5f73ffffffffffffffffffffffffffffffffffffffff82169050919050565b5f819050919050565b5f6103db6103d66103d184610399565b6103b8565b610399565b9050919050565b5f6103ec826103c1565b9050919050565b5f6103fd826103e2565b9050919050565b61040d816103f3565b82525050565b5f6020820190506104265f830184610404565b92915050565b610435816102fd565b82525050565b5f60208201905061044e5f83018461042c565b92915050565b7f4e487b71000000000000000000000000000000000000000000000000000000005f52603260045260245ffd5b5f8151905061048f81610306565b92915050565b5f602082840312156104aa576104a96102f9565b5b5f6104b784828501610481565b9150509291505056fe6080604052348015600e575f5ffd5b50610b238061001c5f395ff3fe608060405234801561000f575f5ffd5b50600436106100b2575f3560e01c806361d1e7d51161006f57806361d1e7d51461019a5780638381f58a146101b65780639b66e0ef146101d4578063d94ca9d714610205578063e2e4521a14610221578063f2c9ecd81461023d576100b2565b80630b9e24c4146100b6578063246a960a146100e65780632fae4ffd146101025780633fb5c1cb146101325780636057361d1461014e578063607b9ab01461016a575b5f5ffd5b6100d060048036038101906100cb91906104a8565b61025b565b6040516100dd91906104e2565b60405180910390f35b61010060048036038101906100fb9190610637565b610274565b005b61011c60048036038101906101179190610691565b61029b565b60405161012991906104e2565b60405180910390f35b61014c600480360381019061014791906104a8565b6102c8565b005b610168600480360381019061016391906104a8565b6102d1565b005b610184600480360381019061017f91906104a8565b6102da565b60405161019191906104e2565b60405180910390f35b6101b460048036038101906101af9190610637565b6102fa565b005b6101be61035b565b6040516101cb91906104e2565b60405180910390f35b6101ee60048036038101906101e991906104a8565b610360565b6040516101fc929190610738565b60405180910390f35b61021f600480360381019061021a9190610766565b610415565b005b61023b600480360381019061023691906104a8565b610433565b005b61024561045c565b60405161025291906104e2565b60405180910390f35b6002816005811061026a575f80fd5b015f915090505481565b8060088360405161028591906107de565b9081526020016040518091039020819055505050565b6008818051602081018201805184825260208301602085012081835280955050505050505f915090505481565b805f8190555050565b805f8190555050565b600181815481106102e9575f80fd5b905f5260205f20015f915090505481565b6007604051806040016040528084815260200183815250908060018154018082558091505060019003905f5260205f2090600202015f909190919091505f820151815f01908161034a91906109f1565b506020820151816001015550505050565b5f5481565b6007818154811061036f575f80fd5b905f5260205f2090600202015f91509050805f01805461038e90610821565b80601f01602080910402602001604051908101604052809291908181526020018280546103ba90610821565b80156104055780601f106103dc57610100808354040283529160200191610405565b820191905f5260205f20905b8154815290600101906020018083116103e857829003601f168201915b5050505050908060010154905082565b806002836005811061042a57610429610ac0565b5b01819055505050565b600181908060018154018082558091505060019003905f5260205f20015f909190919091505550565b5f5f54905090565b5f604051905090565b5f5ffd5b5f5ffd5b5f819050919050565b61048781610475565b8114610491575f5ffd5b50565b5f813590506104a28161047e565b92915050565b5f602082840312156104bd576104bc61046d565b5b5f6104ca84828501610494565b91505092915050565b6104dc81610475565b82525050565b5f6020820190506104f55f8301846104d3565b92915050565b5f5ffd5b5f5ffd5b5f601f19601f8301169050919050565b7f4e487b71000000000000000000000000000000000000000000000000000000005f52604160045260245ffd5b61054982610503565b810181811067ffffffffffffffff8211171561056857610567610513565b5b80604052505050565b5f61057a610464565b90506105868282610540565b919050565b5f67ffffffffffffffff8211156105a5576105a4610513565b5b6105ae82610503565b9050602081019050919050565b828183375f83830152505050565b5f6105db6105d68461058b565b610571565b9050828152602081018484840111156105f7576105f66104ff565b5b6106028482856105bb565b509392505050565b5f82601f83011261061e5761061d6104fb565b5b813561062e8482602086016105c9565b91505092915050565b5f5f6040838503121561064d5761064c61046d565b5b5f83013567ffffffffffffffff81111561066a57610669610471565b5b6106768582860161060a565b925050602061068785828601610494565b9150509250929050565b5f602082840312156106a6576106a561046d565b5b5f82013567ffffffffffffffff8111156106c3576106c2610471565b5b6106cf8482850161060a565b91505092915050565b5f81519050919050565b5f82825260208201905092915050565b8281835e5f83830152505050565b5f61070a826106d8565b61071481856106e2565b93506107248185602086016106f2565b61072d81610503565b840191505092915050565b5f6040820190508181035f8301526107508185610700565b905061075f60208301846104d3565b9392505050565b5f5f6040838503121561077c5761077b61046d565b5b5f61078985828601610494565b925050602061079a85828601610494565b9150509250929050565b5f81905092915050565b5f6107b8826106d8565b6107c281856107a4565b93506107d28185602086016106f2565b80840191505092915050565b5f6107e982846107ae565b915081905092915050565b7f4e487b71000000000000000000000000000000000000000000000000000000005f52602260045260245ffd5b5f600282049050600182168061083857607f821691505b60208210810361084b5761084a6107f4565b5b50919050565b5f819050815f5260205f209050919050565b5f6020601f8301049050919050565b5f82821b905092915050565b5f600883026108ad7fffffffffffffffffffffffffffffffffffffffffffffffffffffffffffffffff82610872565b6108b78683610872565b95508019841693508086168417925050509392505050565b5f819050919050565b5f6108f26108ed6108e884610475565b6108cf565b610475565b9050919050565b5f819050919050565b61090b836108d8565b61091f610917826108f9565b84845461087e565b825550505050565b5f5f905090565b610936610927565b610941818484610902565b505050565b5b81811015610964576109595f8261092e565b600181019050610947565b5050565b601f8211156109a95761097a81610851565b61098384610863565b81016020851015610992578190505b6109a661099e85610863565b830182610946565b50505b505050565b5f82821c905092915050565b5f6109c95f19846008026109ae565b1980831691505092915050565b5f6109e183836109ba565b9150826002028217905092915050565b6109fa826106d8565b67ffffffffffffffff811115610a1357610a12610513565b5b610a1d8254610821565b610a28828285610968565b5f60209050601f831160018114610a59575f8415610a47578287015190505b610a5185826109d6565b865550610ab8565b601f198416610a6786610851565b5f5b82811015610a8e57848901518255600182019150602085019450602081019050610a69565b86831015610aab5784890151610aa7601f8916826109ba565b8355505b6001600288020188555050505b505050505050565b7f4e487b71000000000000000000000000000000000000000000000000000000005f52603260045260245ffdfea26469706673582212203eb1d4145c2f99ba80a0d51212eb667ba8e4fde44d496921bc61c626eb404fb464736f6c634300081d0033a26469706673582212200ce9a009f491112ed4e9497d8b11b4d3dfd8a4760397363c5d965aedf30c982f64736f6c634300081d0033",
					"opcodes": "PUSH1 0x80 PUSH1 0x40 MSTORE CALLVALUE DUP1 ISZERO PUSH1 0xE JUMPI PUSH0 PUSH0 REVERT JUMPDEST POP PUSH2 0x1035 DUP1 PUSH2 0x1C PUSH0 CODECOPY PUSH0 RETURN INVALID PUSH1 0x80 PUSH1 0x40 MSTORE CALLVALUE DUP1 ISZERO PUSH2 0xF JUMPI PUSH0 PUSH0 REVERT JUMPDEST POP PUSH1 0x4 CALLDATASIZE LT PUSH2 0x4A JUMPI PUSH0 CALLDATALOAD PUSH1 0xE0 SHR DUP1 PUSH4 0x1563700F EQ PUSH2 0x4E JUMPI DUP1 PUSH4 0x40D66B3B EQ PUSH2 0x6A JUMPI DUP1 PUSH4 0xA5772EBA EQ PUSH2 0x74 JUMPI DUP1 PUSH4 0xB51C8444 EQ PUSH2 0xA4 JUMPI JUMPDEST PUSH0 PUSH0 REVERT JUMPDEST PUSH2 0x68 PUSH1 0x4 DUP1 CALLDATASIZE SUB DUP2 ADD SWAP1 PUSH2 0x63 SWAP2 SWAP1 PUSH2 0x330 JUMP JUMPDEST PUSH2 0xD4 JUMP JUMPDEST STOP JUMPDEST PUSH2 0x72 PUSH2 0x178 JUMP JUMPDEST STOP JUMPDEST PUSH2 0x8E PUSH1 0x4 DUP1 CALLDATASIZE SUB DUP2 ADD SWAP1 PUSH2 0x89 SWAP2 SWAP1 PUSH2 0x36E JUMP JUMPDEST PUSH2 0x203 JUMP JUMPDEST PUSH1 0x40 MLOAD PUSH2 0x9B SWAP2 SWAP1 PUSH2 0x413 JUMP JUMPDEST PUSH1 0x40 MLOAD DUP1 SWAP2 SUB SWAP1 RETURN JUMPDEST PUSH2 0xBE PUSH1 0x4 DUP1 CALLDATASIZE SUB DUP2 ADD SWAP1 PUSH2 0xB9 SWAP2 SWAP1 PUSH2 0x36E JUMP JUMPDEST PUSH2 0x23D JUMP JUMPDEST PUSH1 0x40 MLOAD PUSH2 0xCB SWAP2 SWAP1 PUSH2 0x43B JUMP JUMPDEST PUSH1 0x40 MLOAD DUP1 SWAP2 SUB SWAP1 RETURN JUMPDEST PUSH0 DUP3 DUP2 SLOAD DUP2 LT PUSH2 0xE7 JUMPI PUSH2 0xE6 PUSH2 0x454 JUMP JUMPDEST JUMPDEST SWAP1 PUSH0 MSTORE PUSH1 0x20 PUSH0 KECCAK256 ADD PUSH0 SWAP1 SLOAD SWAP1 PUSH2 0x100 EXP SWAP1 DIV PUSH20 0xFFFFFFFFFFFFFFFFFFFFFFFFFFFFFFFFFFFFFFFF AND PUSH20 0xFFFFFFFFFFFFFFFFFFFFFFFFFFFFFFFFFFFFFFFF AND PUSH4 0x6057361D DUP3 PUSH1 0x40 MLOAD DUP3 PUSH4 0xFFFFFFFF AND PUSH1 0xE0 SHL DUP2 MSTORE PUSH1 0x4 ADD PUSH2 0x147 SWAP2 SWAP1 PUSH2 0x43B JUMP JUMPDEST PUSH0 PUSH1 0x40 MLOAD DUP1 DUP4 SUB DUP2 PUSH0 DUP8 DUP1 EXTCODESIZE ISZERO DUP1 ISZERO PUSH2 0x15E JUMPI PUSH0 PUSH0 REVERT JUMPDEST POP GAS CALL ISZERO DUP1 ISZERO PUSH2 0x170 JUMPI RETURNDATASIZE PUSH0 PUSH0 RETURNDATACOPY RETURNDATASIZE PUSH0 REVERT JUMPDEST POP POP POP POP POP POP JUMP JUMPDEST PUSH0 PUSH1 0x40 MLOAD PUSH2 0x185 SWAP1 PUSH2 0x2EC JUMP JUMPDEST PUSH1 0x40 MLOAD DUP1 SWAP2 SUB SWAP1 PUSH0 CREATE DUP1 ISZERO DUP1 ISZERO PUSH2 0x19E JUMPI RETURNDATASIZE PUSH0 PUSH0 RETURNDATACOPY RETURNDATASIZE PUSH0 REVERT JUMPDEST POP SWAP1 POP PUSH0 DUP2 SWAP1 DUP1 PUSH1 0x1 DUP2 SLOAD ADD DUP1 DUP3 SSTORE DUP1 SWAP2 POP POP PUSH1 0x1 SWAP1 SUB SWAP1 PUSH0 MSTORE PUSH1 0x20 PUSH0 KECCAK256 ADD PUSH0 SWAP1 SWAP2 SWAP1 SWAP2 SWAP1 SWAP2 PUSH2 0x100 EXP DUP2 SLOAD DUP2 PUSH20 0xFFFFFFFFFFFFFFFFFFFFFFFFFFFFFFFFFFFFFFFF MUL NOT AND SWAP1 DUP4 PUSH20 0xFFFFFFFFFFFFFFFFFFFFFFFFFFFFFFFFFFFFFFFF AND MUL OR SWAP1 SSTORE POP POP JUMP JUMPDEST PUSH0 DUP2 DUP2 SLOAD DUP2 LT PUSH2 0x211 JUMPI PUSH0 DUP1 REVERT JUMPDEST SWAP1 PUSH0 MSTORE PUSH1 0x20 PUSH0 KECCAK256 ADD PUSH0 SWAP2 POP SLOAD SWAP1 PUSH2 0x100 EXP SWAP1 DIV PUSH20 0xFFFFFFFFFFFFFFFFFFFFFFFFFFFFFFFFFFFFFFFF AND DUP2 JUMP JUMPDEST PUSH0 PUSH0 DUP3 DUP2 SLOAD DUP2 LT PUSH2 0x251 JUMPI PUSH2 0x250 PUSH2 0x454 JUMP JUMPDEST JUMPDEST SWAP1 PUSH0 MSTORE PUSH1 0x20 PUSH0 KECCAK256 ADD PUSH0 SWAP1 SLOAD SWAP1 PUSH2 0x100 EXP SWAP1 DIV PUSH20 0xFFFFFFFFFFFFFFFFFFFFFFFFFFFFFFFFFFFFFFFF AND PUSH20 0xFFFFFFFFFFFFFFFFFFFFFFFFFFFFFFFFFFFFFFFF AND PUSH4 0xF2C9ECD8 PUSH1 0x40 MLOAD DUP2 PUSH4 0xFFFFFFFF AND PUSH1 0xE0 SHL DUP2 MSTORE PUSH1 0x4 ADD PUSH1 0x20 PUSH1 0x40 MLOAD DUP1 DUP4 SUB DUP2 DUP7 GAS STATICCALL ISZERO DUP1 ISZERO PUSH2 0x2C1 JUMPI RETURNDATASIZE PUSH0 PUSH0 RETURNDATACOPY RETURNDATASIZE PUSH0 REVERT JUMPDEST POP POP POP POP PUSH1 0x40 MLOAD RETURNDATASIZE PUSH1 0x1F NOT PUSH1 0x1F DUP3 ADD AND DUP3 ADD DUP1 PUSH1 0x40 MSTORE POP DUP2 ADD SWAP1 PUSH2 0x2E5 SWAP2 SWAP1 PUSH2 0x495 JUMP JUMPDEST SWAP1 POP SWAP2 SWAP1 POP JUMP JUMPDEST PUSH2 0xB3F DUP1 PUSH2 0x4C1 DUP4 CODECOPY ADD SWAP1 JUMP JUMPDEST PUSH0 PUSH0 REVERT JUMPDEST PUSH0 DUP2 SWAP1 POP SWAP2 SWAP1 POP JUMP JUMPDEST PUSH2 0x30F DUP2 PUSH2 0x2FD JUMP JUMPDEST DUP2 EQ PUSH2 0x319 JUMPI PUSH0 PUSH0 REVERT JUMPDEST POP JUMP JUMPDEST PUSH0 DUP2 CALLDATALOAD SWAP1 POP PUSH2 0x32A DUP2 PUSH2 0x306 JUMP JUMPDEST SWAP3 SWAP2 POP POP JUMP JUMPDEST PUSH0 PUSH0 PUSH1 0x40 DUP4 DUP6 SUB SLT ISZERO PUSH2 0x346 JUMPI PUSH2 0x345 PUSH2 0x2F9 JUMP JUMPDEST JUMPDEST PUSH0 PUSH2 0x353 DUP6 DUP3 DUP7 ADD PUSH2 0x31C JUMP JUMPDEST SWAP3 POP POP PUSH1 0x20 PUSH2 0x364 DUP6 DUP3 DUP7 ADD PUSH2 0x31C JUMP JUMPDEST SWAP2 POP POP SWAP3 POP SWAP3 SWAP1 POP JUMP JUMPDEST PUSH0 PUSH1 0x20 DUP3 DUP5 SUB SLT ISZERO PUSH2 0x383 JUMPI PUSH2 0x382 PUSH2 0x2F9 JUMP JUMPDEST JUMPDEST PUSH0 PUSH2 0x390 DUP5 DUP3 DUP6 ADD PUSH2 0x31C JUMP JUMPDEST SWAP2 POP POP SWAP3 SWAP2 POP POP JUMP JUMPDEST PUSH0 PUSH20 0xFFFFFFFFFFFFFFFFFFFFFFFFFFFFFFFFFFFFFFFF DUP3 AND SWAP1 POP SWAP2 SWAP1 POP JUMP JUMPDEST PUSH0 DUP2 SWAP1 POP SWAP2 SWAP1 POP JUMP JUMPDEST PUSH0 PUSH2 0x3DB PUSH2 0x3D6 PUSH2 0x3D1 DUP5 PUSH2 0x399 JUMP JUMPDEST PUSH2 0x3B8 JUMP JUMPDEST PUSH2 0x399 JUMP JUMPDEST SWAP1 POP SWAP2 SWAP1 POP JUMP JUMPDEST PUSH0 PUSH2 0x3EC DUP3 PUSH2 0x3C1 JUMP JUMPDEST SWAP1 POP SWAP2 SWAP1 POP JUMP JUMPDEST PUSH0 PUSH2 0x3FD DUP3 PUSH2 0x3E2 JUMP JUMPDEST SWAP1 POP SWAP2 SWAP1 POP JUMP JUMPDEST PUSH2 0x40D DUP2 PUSH2 0x3F3 JUMP JUMPDEST DUP3 MSTORE POP POP JUMP JUMPDEST PUSH0 PUSH1 0x20 DUP3 ADD SWAP1 POP PUSH2 0x426 PUSH0 DUP4 ADD DUP5 PUSH2 0x404 JUMP JUMPDEST SWAP3 SWAP2 POP POP JUMP JUMPDEST PUSH2 0x435 DUP2 PUSH2 0x2FD JUMP JUMPDEST DUP3 MSTORE POP POP JUMP JUMPDEST PUSH0 PUSH1 0x20 DUP3 ADD SWAP1 POP PUSH2 0x44E PUSH0 DUP4 ADD DUP5 PUSH2 0x42C JUMP JUMPDEST SWAP3 SWAP2 POP POP JUMP JUMPDEST PUSH32 0x4E487B7100000000000000000000000000000000000000000000000000000000 PUSH0 MSTORE PUSH1 0x32 PUSH1 0x4 MSTORE PUSH1 0x24 PUSH0 REVERT JUMPDEST PUSH0 DUP2 MLOAD SWAP1 POP PUSH2 0x48F DUP2 PUSH2 0x306 JUMP JUMPDEST SWAP3 SWAP2 POP POP JUMP JUMPDEST PUSH0 PUSH1 0x20 DUP3 DUP5 SUB SLT ISZERO PUSH2 0x4AA JUMPI PUSH2 0x4A9 PUSH2 0x2F9 JUMP JUMPDEST JUMPDEST PUSH0 PUSH2 0x4B7 DUP5 DUP3 DUP6 ADD PUSH2 0x481 JUMP JUMPDEST SWAP2 POP POP SWAP3 SWAP2 POP POP JUMP INVALID PUSH1 0x80 PUSH1 0x40 MSTORE CALLVALUE DUP1 ISZERO PUSH1 0xE JUMPI PUSH0 PUSH0 REVERT JUMPDEST POP PUSH2 0xB23 DUP1 PUSH2 0x1C PUSH0 CODECOPY PUSH0 RETURN INVALID PUSH1 0x80 PUSH1 0x40 MSTORE CALLVALUE DUP1 ISZERO PUSH2 0xF JUMPI PUSH0 PUSH0 REVERT JUMPDEST POP PUSH1 0x4 CALLDATASIZE LT PUSH2 0xB2 JUMPI PUSH0 CALLDATALOAD PUSH1 0xE0 SHR DUP1 PUSH4 0x61D1E7D5 GT PUSH2 0x6F JUMPI DUP1 PUSH4 0x61D1E7D5 EQ PUSH2 0x19A JUMPI DUP1 PUSH4 0x8381F58A EQ PUSH2 0x1B6 JUMPI DUP1 PUSH4 0x9B66E0EF EQ PUSH2 0x1D4 JUMPI DUP1 PUSH4 0xD94CA9D7 EQ PUSH2 0x205 JUMPI DUP1 PUSH4 0xE2E4521A EQ PUSH2 0x221 JUMPI DUP1 PUSH4 0xF2C9ECD8 EQ PUSH2 0x23D JUMPI PUSH2 0xB2 JUMP JUMPDEST DUP1 PUSH4 0xB9E24C4 EQ PUSH2 0xB6 JUMPI DUP1 PUSH4 0x246A960A EQ PUSH2 0xE6 JUMPI DUP1 PUSH4 0x2FAE4FFD EQ PUSH2 0x102 JUMPI DUP1 PUSH4 0x3FB5C1CB EQ PUSH2 0x132 JUMPI DUP1 PUSH4 0x6057361D EQ PUSH2 0x14E JUMPI DUP1 PUSH4 0x607B9AB0 EQ PUSH2 0x16A JUMPI JUMPDEST PUSH0 PUSH0 REVERT JUMPDEST PUSH2 0xD0 PUSH1 0x4 DUP1 CALLDATASIZE SUB DUP2 ADD SWAP1 PUSH2 0xCB SWAP2 SWAP1 PUSH2 0x4A8 JUMP JUMPDEST PUSH2 0x25B JUMP JUMPDEST PUSH1 0x40 MLOAD PUSH2 0xDD SWAP2 SWAP1 PUSH2 0x4E2 JUMP JUMPDEST PUSH1 0x40 MLOAD DUP1 SWAP2 SUB SWAP1 RETURN JUMPDEST PUSH2 0x100 PUSH1 0x4 DUP1 CALLDATASIZE SUB DUP2 ADD SWAP1 PUSH2 0xFB SWAP2 SWAP1 PUSH2 0x637 JUMP JUMPDEST PUSH2 0x274 JUMP JUMPDEST STOP JUMPDEST PUSH2 0x11C PUSH1 0x4 DUP1 CALLDATASIZE SUB DUP2 ADD SWAP1 PUSH2 0x117 SWAP2 SWAP1 PUSH2 0x691 JUMP JUMPDEST PUSH2 0x29B JUMP JUMPDEST PUSH1 0x40 MLOAD PUSH2 0x129 SWAP2 SWAP1 PUSH2 0x4E2 JUMP JUMPDEST PUSH1 0x40 MLOAD DUP1 SWAP2 SUB SWAP1 RETURN JUMPDEST PUSH2 0x14C PUSH1 0x4 DUP1 CALLDATASIZE SUB DUP2 ADD SWAP1 PUSH2 0x147 SWAP2 SWAP1 PUSH2 0x4A8 JUMP JUMPDEST PUSH2 0x2C8 JUMP JUMPDEST STOP JUMPDEST PUSH2 0x168 PUSH1 0x4 DUP1 CALLDATASIZE SUB DUP2 ADD SWAP1 PUSH2 0x163 SWAP2 SWAP1 PUSH2 0x4A8 JUMP JUMPDEST PUSH2 0x2D1 JUMP JUMPDEST STOP JUMPDEST PUSH2 0x184 PUSH1 0x4 DUP1 CALLDATASIZE SUB DUP2 ADD SWAP1 PUSH2 0x17F SWAP2 SWAP1 PUSH2 0x4A8 JUMP JUMPDEST PUSH2 0x2DA JUMP JUMPDEST PUSH1 0x40 MLOAD PUSH2 0x191 SWAP2 SWAP1 PUSH2 0x4E2 JUMP JUMPDEST PUSH1 0x40 MLOAD DUP1 SWAP2 SUB SWAP1 RETURN JUMPDEST PUSH2 0x1B4 PUSH1 0x4 DUP1 CALLDATASIZE SUB DUP2 ADD SWAP1 PUSH2 0x1AF SWAP2 SWAP1 PUSH2 0x637 JUMP JUMPDEST PUSH2 0x2FA JUMP JUMPDEST STOP JUMPDEST PUSH2 0x1BE PUSH2 0x35B JUMP JUMPDEST PUSH1 0x40 MLOAD PUSH2 0x1CB SWAP2 SWAP1 PUSH2 0x4E2 JUMP JUMPDEST PUSH1 0x40 MLOAD DUP1 SWAP2 SUB SWAP1 RETURN JUMPDEST PUSH2 0x1EE PUSH1 0x4 DUP1 CALLDATASIZE SUB DUP2 ADD SWAP1 PUSH2 0x1E9 SWAP2 SWAP1 PUSH2 0x4A8 JUMP JUMPDEST PUSH2 0x360 JUMP JUMPDEST PUSH1 0x40 MLOAD PUSH2 0x1FC SWAP3 SWAP2 SWAP1 PUSH2 0x738 JUMP JUMPDEST PUSH1 0x40 MLOAD DUP1 SWAP2 SUB SWAP1 RETURN JUMPDEST PUSH2 0x21F PUSH1 0x4 DUP1 CALLDATASIZE SUB DUP2 ADD SWAP1 PUSH2 0x21A SWAP2 SWAP1 PUSH2 0x766 JUMP JUMPDEST PUSH2 0x415 JUMP JUMPDEST STOP JUMPDEST PUSH2 0x23B PUSH1 0x4 DUP1 CALLDATASIZE SUB DUP2 ADD SWAP1 PUSH2 0x236 SWAP2 SWAP1 PUSH2 0x4A8 JUMP JUMPDEST PUSH2 0x433 JUMP JUMPDEST STOP JUMPDEST PUSH2 0x245 PUSH2 0x45C JUMP JUMPDEST PUSH1 0x40 MLOAD PUSH2 0x252 SWAP2 SWAP1 PUSH2 0x4E2 JUMP JUMPDEST PUSH1 0x40 MLOAD DUP1 SWAP2 SUB SWAP1 RETURN JUMPDEST PUSH1 0x2 DUP2 PUSH1 0x5 DUP2 LT PUSH2 0x26A JUMPI PUSH0 DUP1 REVERT JUMPDEST ADD PUSH0 SWAP2 POP SWAP1 POP SLOAD DUP2 JUMP JUMPDEST DUP1 PUSH1 0x8 DUP4 PUSH1 0x40 MLOAD PUSH2 0x285 SWAP2 SWAP1 PUSH2 0x7DE JUMP JUMPDEST SWAP1 DUP2 MSTORE PUSH1 0x20 ADD PUSH1 0x40 MLOAD DUP1 SWAP2 SUB SWAP1 KECCAK256 DUP2 SWAP1 SSTORE POP POP POP JUMP JUMPDEST PUSH1 0x8 DUP2 DUP1 MLOAD PUSH1 0x20 DUP2 ADD DUP3 ADD DUP1 MLOAD DUP5 DUP3 MSTORE PUSH1 0x20 DUP4 ADD PUSH1 0x20 DUP6 ADD KECCAK256 DUP2 DUP4 MSTORE DUP1 SWAP6 POP POP POP POP POP POP PUSH0 SWAP2 POP SWAP1 POP SLOAD DUP2 JUMP JUMPDEST DUP1 PUSH0 DUP2 SWAP1 SSTORE POP POP JUMP JUMPDEST DUP1 PUSH0 DUP2 SWAP1 SSTORE POP POP JUMP JUMPDEST PUSH1 0x1 DUP2 DUP2 SLOAD DUP2 LT PUSH2 0x2E9 JUMPI PUSH0 DUP1 REVERT JUMPDEST SWAP1 PUSH0 MSTORE PUSH1 0x20 PUSH0 KECCAK256 ADD PUSH0 SWAP2 POP SWAP1 POP SLOAD DUP2 JUMP JUMPDEST PUSH1 0x7 PUSH1 0x40 MLOAD DUP1 PUSH1 0x40 ADD PUSH1 0x40 MSTORE DUP1 DUP5 DUP2 MSTORE PUSH1 0x20 ADD DUP4 DUP2 MSTORE POP SWAP1 DUP1 PUSH1 0x1 DUP2 SLOAD ADD DUP1 DUP3 SSTORE DUP1 SWAP2 POP POP PUSH1 0x1 SWAP1 SUB SWAP1 PUSH0 MSTORE PUSH1 0x20 PUSH0 KECCAK256 SWAP1 PUSH1 0x2 MUL ADD PUSH0 SWAP1 SWAP2 SWAP1 SWAP2 SWAP1 SWAP2 POP PUSH0 DUP3 ADD MLOAD DUP2 PUSH0 ADD SWAP1 DUP2 PUSH2 0x34A SWAP2 SWAP1 PUSH2 0x9F1 JUMP JUMPDEST POP PUSH1 0x20 DUP3 ADD MLOAD DUP2 PUSH1 0x1 ADD SSTORE POP POP POP POP JUMP JUMPDEST PUSH0 SLOAD DUP2 JUMP JUMPDEST PUSH1 0x7 DUP2 DUP2 SLOAD DUP2 LT PUSH2 0x36F JUMPI PUSH0 DUP1 REVERT JUMPDEST SWAP1 PUSH0 MSTORE PUSH1 0x20 PUSH0 KECCAK256 SWAP1 PUSH1 0x2 MUL ADD PUSH0 SWAP2 POP SWAP1 POP DUP1 PUSH0 ADD DUP1 SLOAD PUSH2 0x38E SWAP1 PUSH2 0x821 JUMP JUMPDEST DUP1 PUSH1 0x1F ADD PUSH1 0x20 DUP1 SWAP2 DIV MUL PUSH1 0x20 ADD PUSH1 0x40 MLOAD SWAP1 DUP2 ADD PUSH1 0x40 MSTORE DUP1 SWAP3 SWAP2 SWAP1 DUP2 DUP2 MSTORE PUSH1 0x20 ADD DUP3 DUP1 SLOAD PUSH2 0x3BA SWAP1 PUSH2 0x821 JUMP JUMPDEST DUP1 ISZERO PUSH2 0x405 JUMPI DUP1 PUSH1 0x1F LT PUSH2 0x3DC JUMPI PUSH2 0x100 DUP1 DUP4 SLOAD DIV MUL DUP4 MSTORE SWAP2 PUSH1 0x20 ADD SWAP2 PUSH2 0x405 JUMP JUMPDEST DUP3 ADD SWAP2 SWAP1 PUSH0 MSTORE PUSH1 0x20 PUSH0 KECCAK256 SWAP1 JUMPDEST DUP2 SLOAD DUP2 MSTORE SWAP1 PUSH1 0x1 ADD SWAP1 PUSH1 0x20 ADD DUP1 DUP4 GT PUSH2 0x3E8 JUMPI DUP3 SWAP1 SUB PUSH1 0x1F AND DUP3 ADD SWAP2 JUMPDEST POP POP POP POP POP SWAP1 DUP1 PUSH1 0x1 ADD SLOAD SWAP1 POP DUP3 JUMP JUMPDEST DUP1 PUSH1 0x2 DUP4 PUSH1 0x5 DUP2 LT PUSH2 0x42A JUMPI PUSH2 0x429 PUSH2 0xAC0 JUMP JUMPDEST JUMPDEST ADD DUP2 SWAP1 SSTORE POP POP POP JUMP JUMPDEST PUSH1 0x1 DUP2 SWAP1 DUP1 PUSH1 0x1 DUP2 SLOAD ADD DUP1 DUP3 SSTORE DUP1 SWAP2 POP POP PUSH1 0x1 SWAP1 SUB SWAP1 PUSH0 MSTORE PUSH1 0x20 PUSH0 KECCAK256 ADD PUSH0 SWAP1 SWAP2 SWAP1 SWAP2 SWAP1 SWAP2 POP SSTORE POP JUMP JUMPDEST PUSH0 PUSH0 SLOAD SWAP1 POP SWAP1 JUMP JUMPDEST PUSH0 PUSH1 0x40 MLOAD SWAP1 POP SWAP1 JUMP JUMPDEST PUSH0 PUSH0 REVERT JUMPDEST PUSH0 PUSH0 REVERT JUMPDEST PUSH0 DUP2 SWAP1 POP SWAP2 SWAP1 POP JUMP JUMPDEST PUSH2 0x487 DUP2 PUSH2 0x475 JUMP JUMPDEST DUP2 EQ PUSH2 0x491 JUMPI PUSH0 PUSH0 REVERT JUMPDEST POP JUMP JUMPDEST PUSH0 DUP2 CALLDATALOAD SWAP1 POP PUSH2 0x4A2 DUP2 PUSH2 0x47E JUMP JUMPDEST SWAP3 SWAP2 POP POP JUMP JUMPDEST PUSH0 PUSH1 0x20 DUP3 DUP5 SUB SLT ISZERO PUSH2 0x4BD JUMPI PUSH2 0x4BC PUSH2 0x46D JUMP JUMPDEST JUMPDEST PUSH0 PUSH2 0x4CA DUP5 DUP3 DUP6 ADD PUSH2 0x494 JUMP JUMPDEST SWAP2 POP POP SWAP3 SWAP2 POP POP JUMP JUMPDEST PUSH2 0x4DC DUP2 PUSH2 0x475 JUMP JUMPDEST DUP3 MSTORE POP POP JUMP JUMPDEST PUSH0 PUSH1 0x20 DUP3 ADD SWAP1 POP PUSH2 0x4F5 PUSH0 DUP4 ADD DUP5 PUSH2 0x4D3 JUMP JUMPDEST SWAP3 SWAP2 POP POP JUMP JUMPDEST PUSH0 PUSH0 REVERT JUMPDEST PUSH0 PUSH0 REVERT JUMPDEST PUSH0 PUSH1 0x1F NOT PUSH1 0x1F DUP4 ADD AND SWAP1 POP SWAP2 SWAP1 POP JUMP JUMPDEST PUSH32 0x4E487B7100000000000000000000000000000000000000000000000000000000 PUSH0 MSTORE PUSH1 0x41 PUSH1 0x4 MSTORE PUSH1 0x24 PUSH0 REVERT JUMPDEST PUSH2 0x549 DUP3 PUSH2 0x503 JUMP JUMPDEST DUP2 ADD DUP2 DUP2 LT PUSH8 0xFFFFFFFFFFFFFFFF DUP3 GT OR ISZERO PUSH2 0x568 JUMPI PUSH2 0x567 PUSH2 0x513 JUMP JUMPDEST JUMPDEST DUP1 PUSH1 0x40 MSTORE POP POP POP JUMP JUMPDEST PUSH0 PUSH2 0x57A PUSH2 0x464 JUMP JUMPDEST SWAP1 POP PUSH2 0x586 DUP3 DUP3 PUSH2 0x540 JUMP JUMPDEST SWAP2 SWAP1 POP JUMP JUMPDEST PUSH0 PUSH8 0xFFFFFFFFFFFFFFFF DUP3 GT ISZERO PUSH2 0x5A5 JUMPI PUSH2 0x5A4 PUSH2 0x513 JUMP JUMPDEST JUMPDEST PUSH2 0x5AE DUP3 PUSH2 0x503 JUMP JUMPDEST SWAP1 POP PUSH1 0x20 DUP2 ADD SWAP1 POP SWAP2 SWAP1 POP JUMP JUMPDEST DUP3 DUP2 DUP4 CALLDATACOPY PUSH0 DUP4 DUP4 ADD MSTORE POP POP POP JUMP JUMPDEST PUSH0 PUSH2 0x5DB PUSH2 0x5D6 DUP5 PUSH2 0x58B JUMP JUMPDEST PUSH2 0x571 JUMP JUMPDEST SWAP1 POP DUP3 DUP2 MSTORE PUSH1 0x20 DUP2 ADD DUP5 DUP5 DUP5 ADD GT ISZERO PUSH2 0x5F7 JUMPI PUSH2 0x5F6 PUSH2 0x4FF JUMP JUMPDEST JUMPDEST PUSH2 0x602 DUP5 DUP3 DUP6 PUSH2 0x5BB JUMP JUMPDEST POP SWAP4 SWAP3 POP POP POP JUMP JUMPDEST PUSH0 DUP3 PUSH1 0x1F DUP4 ADD SLT PUSH2 0x61E JUMPI PUSH2 0x61D PUSH2 0x4FB JUMP JUMPDEST JUMPDEST DUP2 CALLDATALOAD PUSH2 0x62E DUP5 DUP3 PUSH1 0x20 DUP7 ADD PUSH2 0x5C9 JUMP JUMPDEST SWAP2 POP POP SWAP3 SWAP2 POP POP JUMP JUMPDEST PUSH0 PUSH0 PUSH1 0x40 DUP4 DUP6 SUB SLT ISZERO PUSH2 0x64D JUMPI PUSH2 0x64C PUSH2 0x46D JUMP JUMPDEST JUMPDEST PUSH0 DUP4 ADD CALLDATALOAD PUSH8 0xFFFFFFFFFFFFFFFF DUP2 GT ISZERO PUSH2 0x66A JUMPI PUSH2 0x669 PUSH2 0x471 JUMP JUMPDEST JUMPDEST PUSH2 0x676 DUP6 DUP3 DUP7 ADD PUSH2 0x60A JUMP JUMPDEST SWAP3 POP POP PUSH1 0x20 PUSH2 0x687 DUP6 DUP3 DUP7 ADD PUSH2 0x494 JUMP JUMPDEST SWAP2 POP POP SWAP3 POP SWAP3 SWAP1 POP JUMP JUMPDEST PUSH0 PUSH1 0x20 DUP3 DUP5 SUB SLT ISZERO PUSH2 0x6A6 JUMPI PUSH2 0x6A5 PUSH2 0x46D JUMP JUMPDEST JUMPDEST PUSH0 DUP3 ADD CALLDATALOAD PUSH8 0xFFFFFFFFFFFFFFFF DUP2 GT ISZERO PUSH2 0x6C3 JUMPI PUSH2 0x6C2 PUSH2 0x471 JUMP JUMPDEST JUMPDEST PUSH2 0x6CF DUP5 DUP3 DUP6 ADD PUSH2 0x60A JUMP JUMPDEST SWAP2 POP POP SWAP3 SWAP2 POP POP JUMP JUMPDEST PUSH0 DUP2 MLOAD SWAP1 POP SWAP2 SWAP1 POP JUMP JUMPDEST PUSH0 DUP3 DUP3 MSTORE PUSH1 0x20 DUP3 ADD SWAP1 POP SWAP3 SWAP2 POP POP JUMP JUMPDEST DUP3 DUP2 DUP4 MCOPY PUSH0 DUP4 DUP4 ADD MSTORE POP POP POP JUMP JUMPDEST PUSH0 PUSH2 0x70A DUP3 PUSH2 0x6D8 JUMP JUMPDEST PUSH2 0x714 DUP2 DUP6 PUSH2 0x6E2 JUMP JUMPDEST SWAP4 POP PUSH2 0x724 DUP2 DUP6 PUSH1 0x20 DUP7 ADD PUSH2 0x6F2 JUMP JUMPDEST PUSH2 0x72D DUP2 PUSH2 0x503 JUMP JUMPDEST DUP5 ADD SWAP2 POP POP SWAP3 SWAP2 POP POP JUMP JUMPDEST PUSH0 PUSH1 0x40 DUP3 ADD SWAP1 POP DUP2 DUP2 SUB PUSH0 DUP4 ADD MSTORE PUSH2 0x750 DUP2 DUP6 PUSH2 0x700 JUMP JUMPDEST SWAP1 POP PUSH2 0x75F PUSH1 0x20 DUP4 ADD DUP5 PUSH2 0x4D3 JUMP JUMPDEST SWAP4 SWAP3 POP POP POP JUMP JUMPDEST PUSH0 PUSH0 PUSH1 0x40 DUP4 DUP6 SUB SLT ISZERO PUSH2 0x77C JUMPI PUSH2 0x77B PUSH2 0x46D JUMP JUMPDEST JUMPDEST PUSH0 PUSH2 0x789 DUP6 DUP3 DUP7 ADD PUSH2 0x494 JUMP JUMPDEST SWAP3 POP POP PUSH1 0x20 PUSH2 0x79A DUP6 DUP3 DUP7 ADD PUSH2 0x494 JUMP JUMPDEST SWAP2 POP POP SWAP3 POP SWAP3 SWAP1 POP JUMP JUMPDEST PUSH0 DUP2 SWAP1 POP SWAP3 SWAP2 POP POP JUMP JUMPDEST PUSH0 PUSH2 0x7B8 DUP3 PUSH2 0x6D8 JUMP JUMPDEST PUSH2 0x7C2 DUP2 DUP6 PUSH2 0x7A4 JUMP JUMPDEST SWAP4 POP PUSH2 0x7D2 DUP2 DUP6 PUSH1 0x20 DUP7 ADD PUSH2 0x6F2 JUMP JUMPDEST DUP1 DUP5 ADD SWAP2 POP POP SWAP3 SWAP2 POP POP JUMP JUMPDEST PUSH0 PUSH2 0x7E9 DUP3 DUP5 PUSH2 0x7AE JUMP JUMPDEST SWAP2 POP DUP2 SWAP1 POP SWAP3 SWAP2 POP POP JUMP JUMPDEST PUSH32 0x4E487B7100000000000000000000000000000000000000000000000000000000 PUSH0 MSTORE PUSH1 0x22 PUSH1 0x4 MSTORE PUSH1 0x24 PUSH0 REVERT JUMPDEST PUSH0 PUSH1 0x2 DUP3 DIV SWAP1 POP PUSH1 0x1 DUP3 AND DUP1 PUSH2 0x838 JUMPI PUSH1 0x7F DUP3 AND SWAP2 POP JUMPDEST PUSH1 0x20 DUP3 LT DUP2 SUB PUSH2 0x84B JUMPI PUSH2 0x84A PUSH2 0x7F4 JUMP JUMPDEST JUMPDEST POP SWAP2 SWAP1 POP JUMP JUMPDEST PUSH0 DUP2 SWAP1 POP DUP2 PUSH0 MSTORE PUSH1 0x20 PUSH0 KECCAK256 SWAP1 POP SWAP2 SWAP1 POP JUMP JUMPDEST PUSH0 PUSH1 0x20 PUSH1 0x1F DUP4 ADD DIV SWAP1 POP SWAP2 SWAP1 POP JUMP JUMPDEST PUSH0 DUP3 DUP3 SHL SWAP1 POP SWAP3 SWAP2 POP POP JUMP JUMPDEST PUSH0 PUSH1 0x8 DUP4 MUL PUSH2 0x8AD PUSH32 0xFFFFFFFFFFFFFFFFFFFFFFFFFFFFFFFFFFFFFFFFFFFFFFFFFFFFFFFFFFFFFFFF DUP3 PUSH2 0x872 JUMP JUMPDEST PUSH2 0x8B7 DUP7 DUP4 PUSH2 0x872 JUMP JUMPDEST SWAP6 POP DUP1 NOT DUP5 AND SWAP4 POP DUP1 DUP7 AND DUP5 OR SWAP3 POP POP POP SWAP4 SWAP3 POP POP POP JUMP JUMPDEST PUSH0 DUP2 SWAP1 POP SWAP2 SWAP1 POP JUMP JUMPDEST PUSH0 PUSH2 0x8F2 PUSH2 0x8ED PUSH2 0x8E8 DUP5 PUSH2 0x475 JUMP JUMPDEST PUSH2 0x8CF JUMP JUMPDEST PUSH2 0x475 JUMP JUMPDEST SWAP1 POP SWAP2 SWAP1 POP JUMP JUMPDEST PUSH0 DUP2 SWAP1 POP SWAP2 SWAP1 POP JUMP JUMPDEST PUSH2 0x90B DUP4 PUSH2 0x8D8 JUMP JUMPDEST PUSH2 0x91F PUSH2 0x917 DUP3 PUSH2 0x8F9 JUMP JUMPDEST DUP5 DUP5 SLOAD PUSH2 0x87E JUMP JUMPDEST DUP3 SSTORE POP POP POP POP JUMP JUMPDEST PUSH0 PUSH0 SWAP1 POP SWAP1 JUMP JUMPDEST PUSH2 0x936 PUSH2 0x927 JUMP JUMPDEST PUSH2 0x941 DUP2 DUP5 DUP5 PUSH2 0x902 JUMP JUMPDEST POP POP POP JUMP JUMPDEST JUMPDEST DUP2 DUP2 LT ISZERO PUSH2 0x964 JUMPI PUSH2 0x959 PUSH0 DUP3 PUSH2 0x92E JUMP JUMPDEST PUSH1 0x1 DUP2 ADD SWAP1 POP PUSH2 0x947 JUMP JUMPDEST POP POP JUMP JUMPDEST PUSH1 0x1F DUP3 GT ISZERO PUSH2 0x9A9 JUMPI PUSH2 0x97A DUP2 PUSH2 0x851 JUMP JUMPDEST PUSH2 0x983 DUP5 PUSH2 0x863 JUMP JUMPDEST DUP2 ADD PUSH1 0x20 DUP6 LT ISZERO PUSH2 0x992 JUMPI DUP2 SWAP1 POP JUMPDEST PUSH2 0x9A6 PUSH2 0x99E DUP6 PUSH2 0x863 JUMP JUMPDEST DUP4 ADD DUP3 PUSH2 0x946 JUMP JUMPDEST POP POP JUMPDEST POP POP POP JUMP JUMPDEST PUSH0 DUP3 DUP3 SHR SWAP1 POP SWAP3 SWAP2 POP POP JUMP JUMPDEST PUSH0 PUSH2 0x9C9 PUSH0 NOT DUP5 PUSH1 0x8 MUL PUSH2 0x9AE JUMP JUMPDEST NOT DUP1 DUP4 AND SWAP2 POP POP SWAP3 SWAP2 POP POP JUMP JUMPDEST PUSH0 PUSH2 0x9E1 DUP4 DUP4 PUSH2 0x9BA JUMP JUMPDEST SWAP2 POP DUP3 PUSH1 0x2 MUL DUP3 OR SWAP1 POP SWAP3 SWAP2 POP POP JUMP JUMPDEST PUSH2 0x9FA DUP3 PUSH2 0x6D8 JUMP JUMPDEST PUSH8 0xFFFFFFFFFFFFFFFF DUP2 GT ISZERO PUSH2 0xA13 JUMPI PUSH2 0xA12 PUSH2 0x513 JUMP JUMPDEST JUMPDEST PUSH2 0xA1D DUP3 SLOAD PUSH2 0x821 JUMP JUMPDEST PUSH2 0xA28 DUP3 DUP3 DUP6 PUSH2 0x968 JUMP JUMPDEST PUSH0 PUSH1 0x20 SWAP1 POP PUSH1 0x1F DUP4 GT PUSH1 0x1 DUP2 EQ PUSH2 0xA59 JUMPI PUSH0 DUP5 ISZERO PUSH2 0xA47 JUMPI DUP3 DUP8 ADD MLOAD SWAP1 POP JUMPDEST PUSH2 0xA51 DUP6 DUP3 PUSH2 0x9D6 JUMP JUMPDEST DUP7 SSTORE POP PUSH2 0xAB8 JUMP JUMPDEST PUSH1 0x1F NOT DUP5 AND PUSH2 0xA67 DUP7 PUSH2 0x851 JUMP JUMPDEST PUSH0 JUMPDEST DUP3 DUP2 LT ISZERO PUSH2 0xA8E JUMPI DUP5 DUP10 ADD MLOAD DUP3 SSTORE PUSH1 0x1 DUP3 ADD SWAP2 POP PUSH1 0x20 DUP6 ADD SWAP5 POP PUSH1 0x20 DUP2 ADD SWAP1 POP PUSH2 0xA69 JUMP JUMPDEST DUP7 DUP4 LT ISZERO PUSH2 0xAAB JUMPI DUP5 DUP10 ADD MLOAD PUSH2 0xAA7 PUSH1 0x1F DUP10 AND DUP3 PUSH2 0x9BA JUMP JUMPDEST DUP4 SSTORE POP JUMPDEST PUSH1 0x1 PUSH1 0x2 DUP9 MUL ADD DUP9 SSTORE POP POP POP JUMPDEST POP POP POP POP POP POP JUMP JUMPDEST PUSH32 0x4E487B7100000000000000000000000000000000000000000000000000000000 PUSH0 MSTORE PUSH1 0x32 PUSH1 0x4 MSTORE PUSH1 0x24 PUSH0 REVERT INVALID LOG2 PUSH5 0x6970667358 0x22 SLT KECCAK256 RETURNDATACOPY 0xB1 0xD4 EQ TLOAD 0x2F SWAP10 0xBA DUP1 LOG0 0xD5 SLT SLT 0xEB PUSH7 0x7BA8E4FDE44D49 PUSH10 0x21BC61C626EB404FB464 PUSH20 0x6F6C634300081D0033A26469706673582212200C 0xE9 LOG0 MULMOD DELEGATECALL SWAP2 GT 0x2E 0xD4 0xE9 BLOBHASH PUSH30 0x8B11B4D3DFD8A4760397363C5D965AEDF30C982F64736F6C634300081D00 CALLER "
				},
				"gasEstimates": {
					"creation": {
						"codeDepositCost": "829800",
						"executionCost": "862",
						"totalCost": "830662"
					},
					"external": {
						"createSimpleStorage()": "infinite",
						"sfGetNumber(uint256)": "infinite",
						"sfStore(uint256,uint256)": "infinite",
						"simpleStorageContracts(uint256)": "infinite"
					}
				},
				"methodIdentifiers": {
					"createSimpleStorage()": "40d66b3b",
					"sfGetNumber(uint256)": "b51c8444",
					"sfStore(uint256,uint256)": "1563700f",
					"simpleStorageContracts(uint256)": "a5772eba"
				}
			},
			"storageLayout": {
				"storage": [
					{
						"astId": 117,
						"contract": "StorageFactory.sol:StorageFactory",
						"label": "simpleStorageContracts",
						"offset": 0,
						"slot": "0",
						"type": "t_array(t_contract(SimpleStorage)109)dyn_storage"
					}
				],
				"types": {
					"t_array(t_contract(SimpleStorage)109)dyn_storage": {
						"base": "t_contract(SimpleStorage)109",
						"encoding": "dynamic_array",
						"label": "contract SimpleStorage[]",
						"numberOfBytes": "32"
					},
					"t_contract(SimpleStorage)109": {
						"encoding": "inplace",
						"label": "contract SimpleStorage",
						"numberOfBytes": "20"
					}
				}
			},
			"userdoc": {
				"kind": "user",
				"methods": {},
				"version": 1
			}
		}
	}
}